:03000000020A5C95
:0C0A5C00787FE4F6D8FD758178020AA3CB
:100AE80042000400000213029A021500E9021100F4
:040AF800E9011001FF
:100E2B00758901758CB1758AE075881175A8837504
:100E3B00B801758921759850E4F58E758DFD758B0C
:090E4B00FD75A893D28E020D6C16
:100E7B00120E2BE54C6401700E120F8C120EE3E474
:100E8B00F54C120F8C80ECAD14AC13AF16AE1512E3
:040E9B00080080DFEC
:100B6800900004E0FEA3E0FF7C007D05120977ED0C
:100B78004C7005120F918018900004E0FEA3E0FF6E
:100B88007C007D05120977ED64014C7003120F405B
:100B9800900004E0FEA3E0FF7C007D0A120977EDD7
:100BA80064014C7003120E9F900004E0FEA3E0FF66
:100BB8007C007D0D120977ED4C7003120F569000E2
:100BC80004E0FEA3E0FF7C007D32120977ED4C7053
:050BD80003120F922240
:03000B00020DD211
:100DD200C0E0C0F0C083C082C0D075D008758CB1AD
:100DE200758AE0900005E004F07006900004E004CB
:0F0DF200F0120B68D0D0D082D083D0F0D0E03296
:100AFC00410003A5430000000000017500017600D1
:060B0C00017300017400FA
:0C0F8000C2AC8F993099FDC299D2AC220E
:060D2B008B698A6A896BE6
:100D3100856C6F856D70856E71900003E0FF120FF9
:100D410080AB69AA6AA96B12091FFF120F80AB6FF2
:100D5100AA70A97112091FFF120F80AB6FAA70A9A7
:0B0D610071900001120938FF020F80A2
:100E5400900000E0FFA3E0FCA3E0FDEF24FE60129D
:100E640024FE60092403700E8C158D16228C118DBE
:060E740012228C138D1404
:010E7A002255
:03002300020C9834
:0B0C9800C0E0C083C082C0D075D0183F
:030CA30030983650
:100CA600859972757500900003E0B572037573013E
:100CB600E5736401701EAF74057474002FF582E449
:100CC6003400F583E572F0E57464037007F573F597
:060CD60074120E54C298D6
:090CDC00D0D0D082D083D0E032E8
:060B1200017700017800EC
:100DA000EF24FE600A047019E5771392B68012AF43
:100DB00077EF64026005EF64047004C2B68002D26B
:100DC000B60577D3E5779408748094804003E4F502
:010DD00077AB
:010DD10022FF
:010F9100223D
:100F4000AF760576D3EF940A74809480400475756B
:060F50000122E4F5752208
:100E9F00E54264017007751004F542800375100177
:100EAF00756C00756D00756E157B007A00791002F8
:020EBF000D2BF9
:100F5600E575640170057578018003757802AF78D0
:060F6600120DA00209CCEF
:010F9200223C
:100B1800014B00014200014C00013A4E072050727F
:100B28006573657400074441637475616C0006273A
:100B38005265736574000D2D537563636573736631
:100B4800756C6C7900084D16090808080906000339
:0F0B58003C000020033F000044014300013B002C
:0F0C480054F0FA43020CAF02120CEC7F057E0051
:0A0C5700EF1FAC0670011E4C603662
:100C6100756801D3E56894007480948040E87567E5
:100C710014D3E5679400748094804016756602D39E
:100C8100E5669400748094804004156680F11567D0
:060C910080DF156880CD34
:010C9700223A
:100F6C00D2A100D2A00000000000C2A1000000002D
:040F7C0000C2A022ED
:070CE500AB07120F6CAF3AE0
:100CEC00E4FEEEFD3395E0FCC3ED9408EC648094D7
:100CFC00805016EF3392A1EF25E0FF0000D2A00048
:100D0C0000000000C2A00E80D900000000D2A1009B
:0E0D1C00000000D2A000000020A1FD00C2A037
:010D2A0022A6
:100F0400120CE5EB120C485302FBAF02120CECEB93
:0E0F1400540FC4120C485302FBAF02020CEC47
:100E0100120CE5EB54F0FA43020D120C4E5302FBA7
:100E1100AF02120CECEB540FC454F0FA43020D1262
:0A0E21000C4E5302FBAF02020CEC72
:100D6C007F33120F04120C537F32120F04120C53E8
:100D7C007F28120F04120C537F0C120F04120C5309
:100D8C007F06120F04120C537F01120F047F057E95
:040D9C0000020C57EE
:060BDD007B00E4FDFCFEBC
:060BE3008B638A64896542
:100BE900C3EE648094805003E4FEFFD3EF940FEECC
:100BF9006480948040047E007F0FC3EC64809480FD
:100C09005003E4FCFDD3ED9401EC6480948040042E
:100C19007C007D01ED75F040A424802FFF120F04A4
:100C2900AB63AA64A96512091F60130565E56570C0
:0E0C390002056414F912091FFF120E0180E279
:010C4700228A
:050EC1002430FB7D015F
:100EC600AE07A90353050153060FED600343064021
:0D0ED600430680AF06120F04AF01020E01AB
:100F22007F40120F04E4F9E9C3940874809480505E
:0D0F32000C744D29F8E6FF120E010980EA4B
:010F3F00228F
:080800008E558F568C578D5860
:10080800120F227A0079207F09120BDD7B007A0013
:100818007944E4FDFCFFFE120BE3E4FB7D017F0558
:10082800120EC6E4FB7D017F0E120EC67B2E7D01E3
:100838007F02120EC67B2E7D017F0B120EC67B7CBB
:10084800E4FD7F07120EC67B7C7D017F07120EC672
:10085800AE57AF587C007D641209778E5D8F5E7C41
:10086800007D64120965AA06AB07C3E5589BFFE53E
:10087800579AFE7D0A1209778E5F8F60C3E5589BF1
:10088800FBE5579AFA7C007D0A120965C3EB9FF5D0
:1008980062EA9EF561AE55AF567D641209778F8284
:1008A8008E837C007D64120965AA06AB07C3E556F2
:1008B8009BFFE5559AFE7D0A1209778E598F5AC318
:1008C800E5569BFBE5559AFA7C007D0A120965C33B
:1008D800EB9FF55CEA9EF55BE55E2430FB7D01E469
:1008E800FF120EC6E5607F01120EC1E5627F03129A
:1008F8000EC1AF82EF2430FB7D017F09120EC6E5E1
:100908005A2430FB7D017F0A120EC6E55C2430FBB9
:070918007D017F0C020EC6F9
:1009CC00209006754C0175420120960B7464251617
:1009DC00F516E43515F51520970C749C2516F516AF
:1009EC0074FF3515F51520940B740A2516F516E4CD
:1009FC003515F51520950C74F62516F51674FF357E
:100A0C0015F5152092080516E516700205152093AC
:100A1C0008E516151670021515D3E51694E7E515BD
:100A2C00940340067515037516E7C3E5169512E594
:100A3C001595115006851115851216AF90EFF460BF
:100A4C00047F0180027F00EF447F6003754B01221D
:100EE3007A0079277F05120BDD7B007A00792D7D4F
:100EF300017C007F027E00120BE37FE87E03020C7D
:010F03005796
:050F8C007F01020F04CB
:100A6800020E7BE493A3F8E493A34003F68001F21B
:100A780008DFF48029E493A3F85407240CC8C3338F
:100A8800C4540F4420C8834004F456800146F6DF5E
:100A9800E4800B0102040810204080900AE8E47EFC
:100AA800019360BCA3FF543F30E509541FFEE49353
:100AB800A360010ECF54C025E060A840B8E493A31A
:100AC800FAE493A3F8E493A3C8C582C8CAC583CA45
:100AD800F0A3C8C582C8CAC583CADFE9DEE780BEFD
:010B6700008D
:10091F00BB010689828A83E0225002E722BBFE02D6
:09092F00E32289828A83E4932209
:10093800BB010CE58229F582E5833AF583E0225074
:1009480006E92582F8E622BBFE06E92582F8E222BE
:0D095800E58229F582E5833AF583E49322D8
:10096500EF8DF0A4A8F0CF8CF0A428CE8DF0A42EA6
:02097500FE2260
:10097700BC000BBE0029EF8DF084FFADF022E4CC64
:10098700F875F008EF2FFFEE33FEEC33FCEE9DEC2D
:10099700984005FCEE9DFE0FD5F0E9E4CEFD22ED73
:1009A700F8F5F0EE8420D21CFEADF075F008EF2FBD
:1009B700FFED33FD4007985006D5F0F222C398FDAE
:0509C7000FD5F0EA224B
:00000001FF
