:0300000002047681
:0C047600787FE4F6D8FD75815A0204BDC1
:10069A0002490000024E029A025000E9024C00325E
:0306AA00014B0100
:10086500758901758CB1758AE075881175A88375D0
:10087500B801758921759850E4F58E758DFD758BD8
:09088500FD75A893D28E02060C49
:10079D0012086530040D1200031205C3C2041200C5
:1007AD0003800BAD4FAC4EAF51AE501201B7A2024C
:1007BD00720050DF120003AF4DAE4C1202F9C200B1
:0707CD00C20212000380CC00
:10076200AE49AF4A7C007D05120162ED4C70031266
:10077200000EAE49AF4A7C007D0A120162ED6401AF
:100782004C70031208D9AE49AF4A7C007D191201A0
:0B07920062ED64024C700312096D223E
:03000B0002088E5A
:10088E00C0E0C0F0C083C082C0D075D008758CB1F6
:10089E00758AE0054AE54A70020549120762D0D012
:0908AE00D082D083D0F0D0E032FA
:1006AD00410000A5041100000000C105011500C1A5
:0406BD000601100022
:0C097D00C2AC8F993099FDC299D2AC2217
:060721008B3F8A40894174
:10072700854245854346854447900000E0FF12090E
:100737007DAB3FAA40A94112011CFF12097DAB45C1
:10074700AA46A94712011CFF12097DAB45AA46A973
:0B07570047900001120135FF02097DF0
:1008B700AF12AD14AC13EF24FE601224FE600924BE
:1008C70003700E8C508D51228C4C8D4D228C4E8D89
:0108D7004FD1
:0108D80022FD
:030023000206DFF3
:0E06DF00C0E0C083C082C0D075D01830982B08
:1006ED00859948C205900000E0B54802D206300653
:1006FD0018AF10051074112FF8A648AF10EF640451
:0B070D007007C206F5101208B7C29872
:09071800D0D0D082D083D0E032B1
:0606C10001160001170004
:10080900EF24FE600A047019E5161392B68012AF40
:1008190016EF64026005EF64047004C2B68002D268
:10082900B60516D3E5169408748094804003E4F560
:0108390016A8
:01083A00229B
:10000E00AF150515D3EF940A748094804003D20582
:04001E0022C20522D3
:1008D9001203E9300107754B04C2018003754B010E
:1008E9007542007543007544507B007A00794B02CC
:0208F9000721D5
:10096D003005057517018003751702AF17020809C9
:1007D4005072657365740041637475616C00526591
:1007E400736574005375636365737366756C6C79B4
:1007F40000204D494E54656D703A00204D415854C7
:05080400656D703A0073
:1006C700C103C101C104C100C10201524E08531642
:0706D70009080808090600EC
:0F05730054F0FA43020CAF0212065B7F027E00C7
:0A058200EF1FAC0670011E4C60363E
:10058C00753E01D3E53E94007480948040E8753D3F
:10059C000FD3E53D9400748094804016753C02D3D3
:1005AC00E53C9400748094804004153C80F1153D2A
:0605BC0080DF153E80CD3A
:0105C2002216
:10095900D2A100D2A00000000000C2A10000000046
:0409690000C2A02206
:07065400AB07120959AF5278
:10065B00E4FEEEFD3395E0FCC3ED9408EC6480946E
:10066B00805016EF3392A1EF25E0FF0000D2A000DF
:10067B0000000000C2A00E80D900000000D2A10033
:0E068B00000000D2A000000020A1FD00C2A0CF
:01069900223E
:10091D00120654EB1205735302FBAF0212065BEB8A
:0E092D00540FC41205735302FBAF0202065BA7
:10083B00120654EB54F0FA43020D1205795302FBE6
:10084B00AF0212065BEB540FC454F0FA43020D12C5
:0A085B0005795302FBAF0202065BB1
:10060C007F3312091D7F057E001205827F3212098D
:10061C001D7F057E001205827F2812091D7F057E35
:10062C00001205827F0C12091D7F057E00120582C7
:10063C007F0612091D7F057E001205827F011209BB
:08064C001D7F057E00020582FE
:0C0502007BFF7A0779D47F09E4FDFCFE42
:06050E008B398A3A893B9B
:10051400C3EE648094805003E4FEFFD3EF940FEEA7
:100524006480948040047E007F0FC3EC64809480D8
:100534005003E4FCFDD3ED9401EC6480948040040A
:100544007C007D01ED75F040A424802FFF12091D6D
:10055400AB39AA3AA93B12011C6013053BE53B7079
:0E05640002053A14F912011CFF12083B80E256
:010572002266
:0508FB002430FB7D012B
:10090000AE07A90353050153060FED6003430640EC
:0D091000430680AF0612091DAF0102083B2F
:10093B007F4012091DE4F9E9C39408748094805038
:0D094B000C745329F8E6FF12083B0980EAFE
:01095800227C
:0801B7008E218F228C238D2480
:1001BF0012093BAE23AF247C007D641201628F28AD
:1001CF00AE23AF247C007D641201627E007F0ACFD4
:1001DF00CDCFCECCCE1201628F29AE23AF247C00BF
:1001EF007D0A1201628D2AAE21AF227C007D64123E
:1001FF0001628F25AE21AF227C007D641201627EE9
:10020F00007F0ACFCDCFCECCCE1201628F26AE218A
:10021F00AF227C007D0A1201628D271205027BFF3F
:10022F007A0779DBE4FDFCFFFE12050EE4FB7D018E
:10023F007F05120900E4FB7D017F0E1209007B7C14
:10024F00E4FD7F071209007B7C7D017F0712090007
:10025F0012093B1205027BFF7A0779DBE4FDFCFFF5
:10026F00FE12050E7B2E7D017F021209007B2E7D73
:10027F00017F0B1209007B7CE4FD7F071209007BD5
:10028F007C7D017F07120900E5282430FB7D01E406
:10029F00FF120900E5297F011208FB7B2E7D017FEC
:1002AF0002120900E52A2430FB7D017F03120900A9
:1002BF00E4FB7D017F05120900E5252430FB7D015C
:1002CF007F09120900E5267F0A1208FB7B2E7D01AC
:1002DF007F0B120900E5272430FB7D017F0C1209EB
:0A02EF0000E4FB7D017F0E02090010
:1003E900209004D204D201209102D20020960B74ED
:1003F900642551F551E43550F55020970C749C252E
:1004090051F55174FF3550F55020940B740A25515C
:10041900F551E43550F55020950C74F62551F551F8
:1004290074FF3550F5502092080551E551700205C9
:1004390050209308E551155170021550D3E5519498
:10044900E7E550940340087550037551E7D202C39C
:10045900E551954DE550954C5008854C50854D51C9
:0D046900D202E590543F643F6002D20322AE
:1005C30078217C007D007BFF7A0779E27E007F063D
:1005D3001200F678277C007D007BFF7A0779E87E9E
:1005E300007F0D1200F67B007A0079217F0512054A
:1005F3000A7B007A0079277D017C007F027E00124E
:09060300050E7FE87E030205826A
:0402F9008E218F22A1
:1002FD0078237C007D007BFF7A0779F57E007F0AED
:10030D001200F6782D7C007D007BFF7A0779FF7E49
:10031D00007F0A1200F612093B7B007A007923E474
:10032D00FDFCFFFE12050E7B007A00792D7D017C10
:10033D0000E4FFFE12050EAE21AF227C007D64129B
:10034D000162AB07EB75F064A4FFC3E5229FFFE5E7
:10035D002195F0FE7C007D0A1201628F37EB75F05E
:10036D0064A4FEC3E5229EFFE53775F00AA4FEC323
:10037D00EF9EF538EB2430FBE4FD7F0A120900E512
:10038D00372430FBE4FD7F0B1209007B2EE4FD7F4B
:10039D000C120900E5382430FBE4FD7F0D12090035
:1003AD00E4FBFD7F0E1209007B397D017F0A1209E6
:1003BD00007B397D017F0B1209007B2E7D017F0CA7
:1003CD001209007B397D017F0D120900E4FB7D01CF
:0C03DD007F0E1209007FE87E03020582FB
:050003007F0102091D50
:1004820002079DE493A3F8E493A34003F68001F2EC
:1004920008DFF48029E493A3F85407240CC8C3337B
:1004A200C4540F4420C8834004F456800146F6DF4A
:1004B200E4800B010204081020408090069AE47E3A
:1004C200019360BCA3FF543F30E509541FFEE4933F
:1004D200A360010ECF54C025E060A840B8E493A306
:1004E200FAE493A3F8E493A3C8C582C8CAC583CA31
:1004F200F0A3C8C582C8CAC583CADFE9DEE780BEE9
:0106DE00001B
:10002600E709F608DFFA8046E709F208DFFA803EBC
:1000360088828C83E709F0A3DFFA8032E309F608A9
:10004600DFFA8078E309F208DFFA807088828C8311
:10005600E309F0A3DFFA806489828A83E0A3F608C5
:10006600DFFA805889828A83E0A3F208DFFA804C9F
:1000760080D280FA80C680D4806980F28033801076
:1000860080A680EA809A80A880DA80E280CA8033DF
:1000960089828A83ECFAE493A3C8C582C8CCC58357
:1000A600CCF0A3C8C582C8CCC583CCDFE9DEE78027
:1000B6000D89828A83E493A3F608DFF9ECFAA9F0A6
:1000C600EDFB2289828A83ECFAE0A3C8C582C8CCFC
:1000D600C583CCF0A3C8C582C8CCC583CCDFEADE15
:1000E600E880DB89828A83E493A3F208DFF980CC77
:1000F60088F0EF60010E4E60C388F0ED2402B40470
:100106000050B9F582EB2402B4040050AF23234516
:06011600822390007673C5
:10011C00BB010689828A83E0225002E722BBFE02E1
:09012C00E32289828A83E4932214
:10013500BB010CE58229F582E5833AF583E022507F
:1001450006E92582F8E622BBFE06E92582F8E222C9
:0D015500E58229F582E5833AF583E49322E3
:10016200BC000BBE0029EF8DF084FFADF022E4CC81
:10017200F875F008EF2FFFEE33FEEC33FCEE9DEC4A
:10018200984005FCEE9DFE0FD5F0E9E4CEFD22ED90
:10019200F8F5F0EE8420D21CFEADF075F008EF2FDA
:1001A200FFED33FD4007985006D5F0F222C398FDCB
:0501B2000FD5F0EA2268
:00000001FF
