:03000000020925CD
:0C092500787FE4F6D8FD75814F02096C64
:100A9600420000000002490000024B00000247002D
:010AA600004F
:100CB200758901758C3C758AB075881175A8837524
:050CC200B801020B9DCA
:100CF000120CB27D287C007F3B7E0112080080F33D
:100B6100900001E030E005120D0C8003120D0D9094
:100B71000000E0FEA3E0FF7C007D0A1209DCED4CE1
:100B81006003120D0E900000E0FEA3E0FF7C007DEB
:0C0B9100141209DCED4C6003120D0F2261
:03000B00020BD114
:100BD100C0E0C0F0C083C082C0D075D008758C3C25
:100BE100758AB0900001E004F07006900000E00406
:0F0BF100F0120B61D0D0D082D083D0F0D0E032A0
:0C0D0000C2AC8F993099FDC299D2AC2290
:040CC700AB07AA06C7
:100CCB00EDC454F04AFEEBFDAF06120D00FF020D12
:010CDB000018
:010D0C0022C4
:010D0D0022C3
:010D0E0022C2
:010D0F0022C1
:100AA70001290001200001194E0710507265736576
:100AB7007400072241637475616C00082B160908DE
:100AC7000808090600031A000010031D0000220190
:050AD7001700012A00D8
:0F0B230054F0FA43020CAF02120AE47F057E0081
:0A0B3200EF1FAC0670011E4C60249A
:100B3C00754601D3E54694007480948040E8754571
:100B4C0002D3E5459400748094804004154580F1EF
:040B5C00154680DFDB
:010B60002272
:100CDC00D2A100D2A00000000000C2A100000000C0
:040CEC0000C2A02280
:070ADD00AB07120CDCAF199E
:100AE400E4FEEEFD3395E0FCC3ED9408EC648094E1
:100AF400805016EF3392A1EF25E0FF0000D2A00052
:100B040000000000C2A00E80D900000000D2A100A5
:0E0B1400000000D2A000000020A1FD00C2A041
:010B220022B0
:100C7600120ADDEB120B235302FBAF02120AE4EB5E
:0E0C8600540FC4120B235302FBAF02020AE408
:100C0000120ADDEB54F0FA43020D120B295302FBDA
:100C1000AF02120AE4EB540FC454F0FA43020D126F
:0A0C20000B295302FBAF02020AE4A5
:100B9D007F33120C76120B2E7F32120C76120B2E27
:100BAD007F28120C76120B2E7F0C120C76120B2E48
:100BBD007F06120C76120B2E7F01120C767F057EAE
:040BCD0000020B32E5
:060A31008B428A43894458
:100A3700C3EE648094805003E4FEFFD3EF940FEE7F
:100A47006480948040047E007F0FC3EC64809480B0
:100A57005003E4FCFDD3ED9401EC648094804004E2
:100A67007C007D01ED75F040A424802FFF120C76E9
:100A7700AB42AA43A9441209B160130544E5447087
:0E0A870002054314F91209B1FF120C0080E2BF
:010A9500223E
:100C2A008B4D8A4E894FAB4DAA4EA94F1209B1FF7F
:100C3A00D39400748094804010120C007401254FE4
:0A0C4A00F54FE4354EF54E80DD2233
:050C54002430FB7D01CE
:100C5900AE07A90353050153060FED600343064090
:0D0C6900430680AF06120C76AF01020C00AE
:100C94007F40120C76E4F9E9C39408748094805080
:0D0CA4000C742B29F8E6FF120C000980EA01
:010CB1002220
:080800008E348F358C368D37E4
:10080800120C947B007A007910E4FDFC7F09FE123B
:100818000A317B007A007922E4FDFCFFFE120A31DE
:10082800E4FB7D017F05120C59E4FB7D017F0E126C
:100838000C597B2E7D017F02120C597B2E7D017F86
:100848000B120C597B7CE4FD7F07120C597B7C7DD5
:10085800017F07120C59AE34AF357C007D64120954
:10086800DC8E388F397C007D641209CAAA06AB0772
:10087800C3E5359BFFE5349AFE7D0A1209DC8E3A02
:100888008F3BC3E5359BFBE5349AFA7C007D0A1261
:1008980009CAC3EB9FF53DEA9EF53CAE36AF377DFE
:1008A800641209DC8F828E837C007D641209CAAAD7
:1008B80006AB07C3E5379BFFE5369AFE7D0A1209AA
:1008C800DC8E3E8F3FC3E5379BFBE5369AFA7C000A
:1008D8007D0A1209CAC3EB9FF541EA9EF540E53946
:1008E8007F09120C54E53B7F0A120C54E53D243075
:1008F800FB7D017F0C120C59AF82EF2430FB7D0188
:10090800E4FF120C59E53F2430FB7D017F01120CF6
:0D09180059E5412430FB7D017F03020C599D
:10093100020CF0E493A3F8E493A34003F68001F2E0
:1009410008DFF48029E493A3F85407240CC8C333C7
:10095100C4540F4420C8834004F456800146F6DF96
:10096100E4800B0102040810204080900A96E47E86
:10097100019360BCA3FF543F30E509541FFEE4938B
:10098100A360010ECF54C025E060A840B8E493A352
:10099100FAE493A3F8E493A3C8C582C8CAC583CA7D
:1009A100F0A3C8C582C8CAC583CADFE9DEE780BE35
:010ADC000019
:1009B100BB010689828A83E0225002E722BBFE0244
:0909C100E32289828A83E4932277
:1009CA00EF8DF0A4A8F0CF8CF0A428CE8DF0A42E41
:0209DA00FE22FB
:1009DC00BC000BBE0029EF8DF084FFADF022E4CCFF
:1009EC00F875F008EF2FFFEE33FEEC33FCEE9DECC8
:1009FC00984005FCEE9DFE0FD5F0E9E4CEFD22ED0E
:100A0C00F8F5F0EE8420D21CFEADF075F008EF2F57
:100A1C00FFED33FD4007985006D5F0F222C398FD48
:050A2C000FD5F0EA22E5
:00000001FF
