:0300000002053DB9
:0C053D00787FE4F6D8FD75815902058432
:1006820002480000024D07D0024FFF85024BFF389F
:03069200014A0119
:10092800758901758CB1758AE075881175A883750C
:10093800B801758921759850E4F58E758DFD758B14
:09094800FD75A893D28E0207167A
:1008620012092830070D1200031206CDC20712002A
:1008720003800BAD4EAC4DAF50AE4F1201EDA20551
:10088200720050DF120003AF4CAE4B12038FC20056
:07089200C20512000380CC37
:10082700AE48AF497C007D05120162ED4C700312A2
:10083700000EAE48AF497C007D0A120162ED6401EB
:100847004C700312099CAE48AF497C007D19120118
:0B08570062ED64024C7003120A3022B4
:03000B0002095196
:10095100C0E0C0F0C083C082C0D075D008758CB132
:10096100758AE00549E54970020548120827D0D08B
:09097100D082D083D0F0D0E03236
:10069500410000A5041100000000C108011500C1BA
:0406A5000901100037
:0C0A4000C2AC8F993099FDC299D2AC2253
:0607E6008B3E8A3F8940B2
:1007EC00854144854245854346900000E0FF120A4E
:1007FC0040AB3EAA3FA94012011CFF120A40AB4479
:10080C00AA45A94612011CFF120A40AB44AA45A9ED
:0B081C0046900001120135FF020A4067
:10097A00AF12AD14AC13EF24FE601224FE600924FA
:10098A0003700E8C4F8D50228C4B8D4C228C4D8DCA
:01099A004E0E
:01099B002239
:030023000207A42D
:0E07A400C0E0C083C082C0D075D01830982B42
:1007B200859947C208900000E0B54702D209300986
:1007C20018AF10051074112FF8A647AF10EF64048C
:0B07D2007007C209F51012097AC298E6
:0907DD00D0D0D082D083D0E032EC
:0606A9000116000117001C
:1008CC00EF24FE600A047019E5161392B68012AF7D
:1008DC0016EF64026005EF64047004C2B68002D2A5
:1008EC00B60516D3E5169408748094804003E4F59D
:0108FC0016E5
:0108FD0022D8
:10000E00AF150515D3EF940A748094804003D2087F
:04001E0022C20822D0
:10099C001204A8300107754A04C2018003754A018C
:1009AC0075410075420075434F7B007A00794A020D
:0209BC0007E64C
:100A30003008057517018003751702AF170208CC3F
:100899005072657365740041637475616C005265CB
:1008A900736574005375636365737366756C6C79EE
:1008B900004D494E54656D703A004D415854656D6F
:0308C900703A0082
:1006AF00C106C101C107C100C105C104C102C10317
:0D06BF0001514E08521609080808090600EE
:0F06320054F0FA43020CAF021207657F027E00FC
:0A064100EF1FAC0670011E4C60367E
:10064B00753D01D3E53D94007480948040E8753C82
:10065B000FD3E53C9400748094804016753B02D315
:10066B00E53B9400748094804004153B80F1153C6D
:06067B0080DF153D80CD7B
:010681002256
:100A1C00D2A100D2A00000000000C2A10000000082
:040A2C0000C2A02242
:07075E00AB07120A1CAF51AA
:10076500E4FEEEFD3395E0FCC3ED9408EC64809463
:10077500805016EF3392A1EF25E0FF0000D2A000D4
:1007850000000000C2A00E80D900000000D2A10028
:0E079500000000D2A000000020A1FD00C2A0C4
:0107A3002233
:1009E00012075EEB1206325302FBAF02120765EBF1
:0E09F000540FC41206325302FBAF0202076519
:1008FE0012075EEB54F0FA43020D1206385302FB58
:10090E00AF02120765EB540FC454F0FA43020D12F6
:0A091E0006385302FBAF0202076522
:100716007F331209E07F057E001206417F321209FF
:10072600E07F057E001206417F281209E07F057EE4
:10073600001206417F0C1209E07F057E0012064179
:100746007F061209E07F057E001206417F0112092D
:08075600E07F057E0002064170
:0405C900E4FDFCFE53
:0605CD008B388A39893ADF
:1005D300C3EE648094805003E4FEFFD3EF940FEEE8
:1005E3006480948040047E007F0FC3EC6480948019
:1005F3005003E4FCFDD3ED9401EC6480948040044B
:100603007C007D01ED75F040A424802FFF1209E0EA
:10061300AB38AA39A93A12011C6013053AE53A70BE
:0E06230002053914F912011CFF1208FE80E2D4
:0106310022A6
:0509BE002430FB7D0167
:1009C300AE07A90353050153060FED600343064029
:0D09D300430680AF061209E0AF010208FEE6
:1009FE007F401209E0E4F9E9C394087480948050B2
:0D0A0E000C745229F8E6FF1208FE0980EA78
:010A1B0022B8
:0801ED008E228F238C248D2546
:1001F500C3E522648094805018D204C3E49523F5A6
:1002050023E49522F5227B2D7D017F091209C38008
:1002150008300405120003C204C3E52464809480F9
:100225005018D202C3E49525F525E49524F5247BE1
:100235002D7D01E4FF1209C3800830020512000379
:10024500C2021209FEAE24AF257C037DE81201B778
:100255008F2AAE24AF257C037DE81201B77E007F8F
:1002650064CFCDCFCECCCE1201B78F2BAE24AF2528
:100275007C007D641201B77E007F0ACFCDCFCECC46
:10028500CE1201B78F2CAE24AF257C007D0A12015A
:10029500B78D2DAE22AF237C037DE81201B78F26E3
:1002A500AE22AF237C037DE81201B77E007F64CFC9
:1002B500CDCFCECCCE1201B78F27AE22AF237C0097
:1002C5007D641201B77E007F0ACFCDCFCECCCE1292
:1002D50001B78F28AE22AF237C007D0A1201B78DAE
:1002E500297BFF7A0879A07F011205C97BFF7A086F
:1002F5007999E4FDFC7F0AFE1205CD7B7CE4FD7F48
:10030500081209C37B7C7D017F081209C31209FE0F
:10031500E52A7F011209BEE52B2430FB7D017F0212
:100325001209C3E52C2430FB7D017F031209C37B31
:100335002E7D017F041209C3E52D2430FB7D017F4D
:10034500051209C3E4FB7D017F061209C3E5267F7B
:100355000A1209BEE5272430FB7D017F0B1209C374
:10036500E5282430FB7D017F0C1209C37B2E7D011E
:100375007F0D1209C3E5292430FB7D017F0E12098B
:0A038500C3E4FB7D017F0F0209C3F2
:1004A800209004D207D201209102D20020960B742A
:1004B800642550F550E4354FF54F20970C749C2572
:1004C80050F55074FF354FF54F20940B740A2550A2
:1004D800F550E4354FF54F20950C74F62550F5503E
:1004E80074FF354FF54F2092080550E5507002050E
:1004F8004F209308E55015507002154FD3E55094DE
:10050800B8E54F6480948B4008754F0B7550B8D28E
:1005180005C3E550954CE54B6480F8E54F64809839
:100528005008854B4F854C50D205E590543F643FA9
:050538006002D2062262
:1006CD0078227C007D007BFF7A0879A77E007F066B
:1006DD001200F678287C007D007BFF7A0879AD7ECC
:1006ED00007F0D1200F67B007A0079227F0512053E
:1006FD00C97B007A0079287D017C007F027E001283
:09070D0005CD7FE87E03020641E0
:04038F008E228F2308
:1003930078247C007D007BFF7A0879BA7E007F0990
:1003A3001200F6782D7C007D007BFF7A0879C37EEE
:1003B300007F091200F61209FE7B007A007924E41B
:1003C300FDFCFFFE1205CD7B007A00792D7D017CBB
:1003D30000E4FFFE1205CDC3E5226480948050182B
:1003E300C3E49523F523E49522F522D2037B2DE480
:1003F300FD7F0A1209C38008300305120003C203FC
:10040300AE22AF237C007D641201B7AB07AE22AFEF
:10041300237C007D641201B77E007F0ACFCDCFCE4F
:10042300CCCE1201B78F36AE22AF237C007D0A12E9
:1004330001B78D37EB2430FBE4FD7F0B1209C3E5D5
:10044300362430FBE4FD7F0C1209C37B2EE4FD7FD1
:100453000D1209C3E5372430FBE4FD7F0E1209C3F7
:10046300E4FBFD7F0F1209C37B337D017F0A120971
:10047300C37B307D017F0B1209C37B307D017F0C71
:100483001209C37B2E7D017F0D1209C37B307D01D1
:100493007F0E1209C3E4FB7D017F0F1209C37FE8BE
:0504A3007E030206418A
:050003007F010209E08D
:10054900020862E493A3F8E493A34003F68001F25E
:1005590008DFF48029E493A3F85407240CC8C333B3
:10056900C4540F4420C8834004F456800146F6DF82
:10057900E4800B0102040810204080900682E47E8A
:10058900019360BCA3FF543F30E509541FFEE49377
:10059900A360010ECF54C025E060A840B8E493A33E
:1005A900FAE493A3F8E493A3C8C582C8CAC583CA69
:1005B900F0A3C8C582C8CAC583CADFE9DEE780BE21
:0106CC00002D
:10002600E709F608DFFA8046E709F208DFFA803EBC
:1000360088828C83E709F0A3DFFA8032E309F608A9
:10004600DFFA8078E309F208DFFA807088828C8311
:10005600E309F0A3DFFA806489828A83E0A3F608C5
:10006600DFFA805889828A83E0A3F208DFFA804C9F
:1000760080D280FA80C680D4806980F28033801076
:1000860080A680EA809A80A880DA80E280CA8033DF
:1000960089828A83ECFAE493A3C8C582C8CCC58357
:1000A600CCF0A3C8C582C8CCC583CCDFE9DEE78027
:1000B6000D89828A83E493A3F608DFF9ECFAA9F0A6
:1000C600EDFB2289828A83ECFAE0A3C8C582C8CCFC
:1000D600C583CCF0A3C8C582C8CCC583CCDFEADE15
:1000E600E880DB89828A83E493A3F208DFF980CC77
:1000F60088F0EF60010E4E60C388F0ED2402B40470
:100106000050B9F582EB2402B4040050AF23234516
:06011600822390007673C5
:10011C00BB010689828A83E0225002E722BBFE02E1
:09012C00E32289828A83E4932214
:10013500BB010CE58229F582E5833AF583E022507F
:1001450006E92582F8E622BBFE06E92582F8E222C9
:0D015500E58229F582E5833AF583E49322E3
:10016200BC000BBE0029EF8DF084FFADF022E4CC81
:10017200F875F008EF2FFFEE33FEEC33FCEE9DEC4A
:10018200984005FCEE9DFE0FD5F0E9E4CEFD22ED90
:10019200F8F5F0EE8420D21CFEADF075F008EF2FDA
:1001A200FFED33FD4007985006D5F0F222C398FDCB
:0501B2000FD5F0EA2268
:1001B700C2D5EC30E709B2D5E4C39DFDE49CFCEE63
:1001C70030E715B2D5E4C39FFFE49EFE120162C378
:1001D700E49DFDE49CFC800312016230D507C3E473
:0601E7009FFFE49EFE22D2
:00000001FF
