:030000000209AF43
:0C09AF00787FE4F6D8FD7581740209F62B
:100ABB004200000000026C0000026E0000026A009F
:010ACB00002A
:100DEE00758901758CB1758AE075881175A8837542
:100DFE00B801758921759850E4F58E758DFD758B4A
:090E0E00FD75A893D28E020D05BA
:100CCD00120DEE756E01756F38756C01756D0975C8
:100CDD006A00756B64E54C6401700C120F1F120EE7
:100CED005CE4F54C120F1FE54C70EAAD6DAC6CAFCA
:080CFD006FAE6E12080080DDED
:100BA000900000E0FEA3E0FF7C007D05120A66EDE8
:100BB0004C7005120F248018900000E0FEA3E0FFA7
:100BC0007C007D05120A66ED64014C7003120F0172
:100BD000900000E0FEA3E0FF7C007D0D120A66EDB0
:100BE0004C7003120ED7900000E0FEA3E0FF7C00E3
:0D0BF0007D32120A66ED4C7003120F2522B3
:03000B00020D6B78
:100D6B00C0E0C0F0C083C082C0D075D008758CB114
:100D7B00758AE0900001E004F07006900000E0043A
:0F0D8B00F0120BA0D0D0D082D083D0F0D0E032C5
:100ACC000116A5021300000112000115000110000F
:030ADC0001110005
:0C0F1300C2AC8F993099FDC299D2AC227B
:040E7D00AB07AA060F
:100E8100EA540FFFEDC454F04FFEEBFDAF16120F05
:0A0E910013AF06120F13FF020F1338
:100E1700E513C4540FFDE513FEE514FBEBFFED24CA
:100E2700FC60092403700B8E6E8F6F22856C6A85B8
:020E37006D6BE1
:010E39002296
:03002300020C9339
:070C9300C0E0C0D075D018CD
:030C9A0030982B64
:100C9D00859969751200E569B51603751001E510A2
:100CAD0064017017AF11051174132FF8A669E511C2
:0B0CBD0064027007F510F511120E170D
:050CC800D0D0D0E032A5
:060ADF0001730001740028
:100D3900EF24FE600A047019E5731392B68012AFAE
:100D490073EF64026005EF64047004D2B68002C2D6
:100D5900B60573D3E5739405748094804003E4F574
:010D69007316
:010D6A002266
:010F240022AA
:100F0100AF150515D3EF940A7480948040037512D0
:020F11000122BB
:100ED700E512640170057574018003757402AF74BF
:060EE700120D3902091F83
:010F250022A9
:100AE500014B00014200014C00013A4E07205072B3
:100AF5006573657400074441637475616C0006276E
:100B05005265736574000D2D537563636573736664
:100B1500756C6C7900084D1609080808090600036C
:0F0B25003C000020033F000044014300013B005F
:0F0BFD0054F0FA43020CAF02120C547F057E0035
:0A0C0C00EF1FAC0670011E4C6036AD
:100C1600756801D3E56894007480948040E8756730
:100C260014D3E5679400748094804016756602D3E9
:100C3600E5669400748094804004156680F115671B
:060C460080DF156880CD7F
:010C4C002285
:100EED00D2A100D2A00000000000C2A100000000AD
:040EFD0000C2A0226D
:070C4D00AB07120EEDAF3AF8
:100C5400E4FEEEFD3395E0FCC3ED9408EC6480946F
:100C6400805016EF3392A1EF25E0FF0000D2A000E0
:100C740000000000C2A00E80D900000000D2A10034
:0E0C8400000000D2A000000020A1FD00C2A0D0
:010C9200223F
:100E9B00120C4DEB120BFD5302FBAF02120C54EB79
:0E0EAB00540FC4120BFD5302FBAF02020C5495
:100D9A00120C4DEB54F0FA43020D120C035302FBF2
:100DAA00AF02120C54EB540FC454F0FA43020D1262
:0A0DBA000C035302FBAF02020C54BD
:100D05007F33120E9B120C087F32120E9B120C08B9
:100D15007F28120E9B120C087F0C120E9B120C08DA
:100D25007F06120E9B120C087F01120E9B7F057E1B
:040D350000020C0CA0
:060B35007B00E4FDFCFE64
:060B3B008B638A648965EA
:100B4100C3EE648094805003E4FEFFD3EF940FEE74
:100B51006480948040047E007F0FC3EC64809480A5
:100B61005003E4FCFDD3ED9401EC648094804004D7
:100B71007C007D01ED75F040A424802FFF120E9BB7
:100B8100AB63AA64A965120A3B60130565E565704C
:0E0B910002056414F9120A3BFF120D9A80E26D
:010B9F002233
:100DC4008B708A718972AB70AA71A972120A3BFF87
:100DD400D39400748094804010120D9A740125728B
:0A0DE400F572E43571F57180DD222F
:050E3A002430FB7D01E6
:100E3F00AE07A90353050153060FED6003430640A8
:0D0E4F00430680AF06120E9BAF01020D9A04
:100EB9007F40120E9BE4F9E9C39408748094805032
:0D0EC9000C744D29F8E6FF120D9A0980EA1D
:010ED60022F9
:080800008E558F568C578D5860
:10080800120EB97A0079207F09120B357B007A0025
:100818007944E4FDFCFFFE120B3BE4FB7D017F0500
:10082800120E3FE4FB7D017F0E120E3F7B2E7D01F1
:100838007F02120E3F7B2E7D017F0B120E3F7B7CC9
:10084800E4FD7F07120E3F7B7C7D017F07120E3F80
:10085800AE57AF587C007D64120A668E5D8F5E7C51
:10086800007D64120A54AA06AB07C3E5589BFFE54E
:10087800579AFE7D0A120A668E5F8F60C3E5589B01
:10088800FBE5579AFA7C007D0A120A54C3EB9FF5E0
:1008980062EA9EF561AE55AF567D64120A668F8294
:1008A8008E837C007D64120A54AA06AB07C3E55602
:1008B8009BFFE5559AFE7D0A120A668E598F5AC328
:1008C800E5569BFBE5559AFA7C007D0A120A54C34B
:1008D800EB9FF55CEA9EF55BE55E2430FB7D01E469
:1008E800FF120E3FE5607F01120E3AE5627F0312A8
:1008F8000E3AAF82EF2430FB7D017F09120E3FE5EF
:100908005A2430FB7D017F0A120E3FE55C2430FB40
:070918007D017F0C020E3F80
:10091F00209006754C0175420120960B7464256F6B
:10092F00F56FE4356EF56E20970C749C256FF56F9F
:10093F0074FF356EF56E20940B740A256FF56FE416
:10094F00356EF56E20950C74F6256FF56F74FF35C7
:10095F006EF56E209208056FE56F7002056E20939D
:10096F0008E56F156F7002156ED3E56F94E7E56EAE
:10097F0094034006756E03756FE7C3E56F956BE5DE
:10098F006E956A5006856A6E856B6FAF90EFF46057
:10099F00047F0180027F00EF447F6003754B0122CB
:100E5C007A0079277F05120B357B007A00792D7D7E
:100E6C00017C007F027E00120B3B7FE87E03020CAC
:010E7C000C69
:050F1F007F01020E9BA2
:1009BB00020CCDE493A3F8E493A34003F68001F279
:1009CB0008DFF48029E493A3F85407240CC8C3333D
:1009DB00C4540F4420C8834004F456800146F6DF0C
:1009EB00E4800B0102040810204080900ABBE47ED7
:1009FB00019360BCA3FF543F30E509541FFEE49301
:100A0B00A360010ECF54C025E060A840B8E493A3C7
:100A1B00FAE493A3F8E493A3C8C582C8CAC583CAF2
:100A2B00F0A3C8C582C8CAC583CADFE9DEE780BEAA
:010B340000C0
:100A3B00BB010689828A83E0225002E722BBFE02B9
:090A4B00E32289828A83E49322EC
:100A5400EF8DF0A4A8F0CF8CF0A428CE8DF0A42EB6
:020A6400FE2270
:100A6600BC000BBE0029EF8DF084FFADF022E4CC74
:100A7600F875F008EF2FFFEE33FEEC33FCEE9DEC3D
:100A8600984005FCEE9DFE0FD5F0E9E4CEFD22ED83
:100A9600F8F5F0EE8420D21CFEADF075F008EF2FCD
:100AA600FFED33FD4007985006D5F0F222C398FDBE
:050AB6000FD5F0EA225B
:00000001FF
