:0300000002047681
:0C047600787FE4F6D8FD75815A0204BDC1
:1006E90002490000024E029A025000E9024C00320F
:0306F900014B01B1
:10087900758901758CB1758AE075881175A88375BC
:10088900B801758921759850E4F58E758DFD758BC4
:09089900FD75A893D28E02065BE6
:1007B10012087930040D120003120612C20412004D
:1007C10003800BAD4FAC4EAF51AE501201B7A20238
:1007D100720050DF120003AF4DAE4C1202F9C2009D
:0707E100C20212000380CCEC
:1005C300AE49AF4A7C007D05120162ED4C70051205
:1005D30000088014AE49AF4A7C007D05120162ED2C
:1005E30064014C700312000EAE49AF4A7C007D0AD1
:1005F300120162ED64014C70031208EDAE49AF4A7B
:0F0603007C007D19120162ED4C700312098122F7
:03000B000208A246
:1008A200C0E0C0F0C083C082C0D075D008758CB1E2
:1008B200758AE0054AE54A700205491205C3D0D09F
:0908C200D082D083D0F0D0E032E6
:1006FC00410000A5041100000000C105011500C156
:04070C0006011000D2
:0C099100C2AC8F993099FDC299D2AC2203
:060770008B3F8A40894125
:10077600854245854346854447900000E0FF1209BF
:1007860091AB3FAA40A94112011CFF120991AB454A
:10079600AA46A94712011CFF120991AB45AA46A910
:0B07A60047900001120135FF0209918D
:1008CB00AF12AD14AC13EF24FE601224FE600924AA
:1008DB0003700E8C508D51228C4C8D4D228C4E8D75
:0108EB004FBD
:0108EC0022E9
:0300230002072EA3
:0E072E00C0E0C083C082C0D075D01830982BB8
:10073C00859948C205900000E0B54802D206300603
:10074C0018AF10051074112FF8A648AF10EF640401
:0B075C007007C206F5101208CBC2980F
:09076700D0D0D082D083D0E03262
:06071000011600011700B4
:10081D00EF24FE600A047019E5161392B68012AF2C
:10082D0016EF64026005EF64047004C2B68002D254
:10083D00B60516D3E5169408748094804003E4F54C
:01084D001694
:01084E002287
:0100080022D5
:10000E00AF150515D3EF940A748094804003D20582
:04001E0022C20522D3
:1008ED001203E9300107754B04C2018003754B01FA
:1008FD007542007543007544507B007A00794B02B8
:02090D00077071
:100981003005057517018003751702AF1702081DA1
:1007E8005072657365740041637475616C0052657D
:1007F800736574005375636365737366756C6C79A0
:1008080000204D494E54656D703A00204D415854B2
:05081800656D703A005F
:10071600C103C101C104C100C10201524E085316F2
:07072600090808080906009C
:0F05730054F0FA43020CAF021206AA7F027E0078
:0A058200EF1FAC0670011E4C60363E
:10058C00753E01D3E53E94007480948040E8753D3F
:10059C000FD3E53D9400748094804016753C02D3D3
:1005AC00E53C9400748094804004153C80F1153D2A
:0605BC0080DF153E80CD3A
:0105C2002216
:10096D00D2A100D2A00000000000C2A10000000032
:04097D0000C2A022F2
:0706A300AB0712096DAF5215
:1006AA00E4FEEEFD3395E0FCC3ED9408EC6480941F
:1006BA00805016EF3392A1EF25E0FF0000D2A00090
:1006CA0000000000C2A00E80D900000000D2A100E4
:0E06DA00000000D2A000000020A1FD00C2A080
:0106E80022EF
:100931001206A3EB1205735302FBAF021206AAEBD8
:0E094100540FC41205735302FBAF020206AA44
:10084F001206A3EB54F0FA43020D1205795302FB83
:10085F00AF021206AAEB540FC454F0FA43020D1262
:0A086F0005795302FBAF020206AA4E
:10065B007F331209317F057E001205827F3212092A
:10066B00317F057E001205827F281209317F057EBE
:10067B00001205827F0C1209317F057E0012058264
:10068B007F061209317F057E001205827F01120958
:08069B00317F057E000205829B
:0C0502007BFF7A0779E87F09E4FDFCFE2E
:06050E008B398A3A893B9B
:10051400C3EE648094805003E4FEFFD3EF940FEEA7
:100524006480948040047E007F0FC3EC64809480D8
:100534005003E4FCFDD3ED9401EC6480948040040A
:100544007C007D01ED75F040A424802FFF12093159
:10055400AB39AA3AA93B12011C6013053BE53B7079
:0E05640002053A14F912011CFF12084F80E242
:010572002266
:05090F002430FB7D0116
:10091400AE07A90353050153060FED6003430640D8
:0D092400430680AF06120931AF0102084FF3
:10094F007F40120931E4F9E9C39408748094805010
:0D095F000C745329F8E6FF12084F0980EAD6
:01096C002268
:0801B7008E218F228C238D2480
:1001BF0012094FAE23AF247C007D641201628F2899
:1001CF00AE23AF247C007D641201627E007F0ACFD4
:1001DF00CDCFCECCCE1201628F29AE23AF247C00BF
:1001EF007D0A1201628D2AAE21AF227C007D64123E
:1001FF0001628F25AE21AF227C007D641201627EE9
:10020F00007F0ACFCDCFCECCCE1201628F26AE218A
:10021F00AF227C007D0A1201628D271205027BFF3F
:10022F007A0779EFE4FDFCFFFE12050EE4FB7D017A
:10023F007F05120914E4FB7D017F0E1209147B7CEC
:10024F00E4FD7F071209147B7C7D017F07120914DF
:10025F0012094F1205027BFF7A0779EFE4FDFCFFCD
:10026F00FE12050E7B2E7D017F021209147B2E7D5F
:10027F00017F0B1209147B7CE4FD7F071209147BAD
:10028F007C7D017F07120914E5282430FB7D01E4F2
:10029F00FF120914E5297F0112090F7B2E7D017FC3
:1002AF0002120914E52A2430FB7D017F0312091481
:1002BF00E4FB7D017F05120914E5252430FB7D0148
:1002CF007F09120914E5267F0A12090F7B2E7D0183
:1002DF007F0B120914E5272430FB7D017F0C1209D7
:0A02EF0014E4FB7D017F0E020914E8
:1003E900209004D204D201209102D20020960B74ED
:1003F900642551F551E43550F55020970C749C252E
:1004090051F55174FF3550F55020940B740A25515C
:10041900F551E43550F55020950C74F62551F551F8
:1004290074FF3550F5502092080551E551700205C9
:1004390050209308E551155170021550D3E5519498
:10044900E7E550940340087550037551E7D202C39C
:10045900E551954DE550954C5008854C50854D51C9
:0D046900D202E590543F643F6002D20322AE
:1006120078217C007D007BFF7A0779F67E007F06D9
:100622001200F678277C007D007BFF7A0779FC7E3A
:10063200007F0D1200F67B007A0079217F051205FA
:100642000A7B007A0079277D017C007F027E0012FE
:09065200050E7FE87E030205821B
:0402F9008E218F22A1
:1002FD0078237C007D007BFF7A0879097E007F0AD8
:10030D001200F6782D7C007D007BFF7A0879137E34
:10031D00007F0A1200F612094F7B007A007923E460
:10032D00FDFCFFFE12050E7B007A00792D7D017C10
:10033D0000E4FFFE12050EAE21AF227C007D64129B
:10034D000162AB07EB75F064A4FFC3E5229FFFE5E7
:10035D002195F0FE7C007D0A1201628F37EB75F05E
:10036D0064A4FEC3E5229EFFE53775F00AA4FEC323
:10037D00EF9EF538EB2430FBE4FD7F0A120914E5FE
:10038D00372430FBE4FD7F0B1209147B2EE4FD7F37
:10039D000C120914E5382430FBE4FD7F0D1209140D
:1003AD00E4FBFD7F0E1209147B397D017F0A1209D2
:1003BD00147B397D017F0B1209147B2E7D017F0C7F
:1003CD001209147B397D017F0D120914E4FB7D01A7
:0C03DD007F0E1209147FE87E03020582E7
:050003007F010209313C
:100482000207B1E493A3F8E493A34003F68001F2D8
:1004920008DFF48029E493A3F85407240CC8C3337B
:1004A200C4540F4420C8834004F456800146F6DF4A
:1004B200E4800B01020408102040809006E9E47EEB
:1004C200019360BCA3FF543F30E509541FFEE4933F
:1004D200A360010ECF54C025E060A840B8E493A306
:1004E200FAE493A3F8E493A3C8C582C8CAC583CA31
:1004F200F0A3C8C582C8CAC583CADFE9DEE780BEE9
:01072D0000CB
:10002600E709F608DFFA8046E709F208DFFA803EBC
:1000360088828C83E709F0A3DFFA8032E309F608A9
:10004600DFFA8078E309F208DFFA807088828C8311
:10005600E309F0A3DFFA806489828A83E0A3F608C5
:10006600DFFA805889828A83E0A3F208DFFA804C9F
:1000760080D280FA80C680D4806980F28033801076
:1000860080A680EA809A80A880DA80E280CA8033DF
:1000960089828A83ECFAE493A3C8C582C8CCC58357
:1000A600CCF0A3C8C582C8CCC583CCDFE9DEE78027
:1000B6000D89828A83E493A3F608DFF9ECFAA9F0A6
:1000C600EDFB2289828A83ECFAE0A3C8C582C8CCFC
:1000D600C583CCF0A3C8C582C8CCC583CCDFEADE15
:1000E600E880DB89828A83E493A3F208DFF980CC77
:1000F60088F0EF60010E4E60C388F0ED2402B40470
:100106000050B9F582EB2402B4040050AF23234516
:06011600822390007673C5
:10011C00BB010689828A83E0225002E722BBFE02E1
:09012C00E32289828A83E4932214
:10013500BB010CE58229F582E5833AF583E022507F
:1001450006E92582F8E622BBFE06E92582F8E222C9
:0D015500E58229F582E5833AF583E49322E3
:10016200BC000BBE0029EF8DF084FFADF022E4CC81
:10017200F875F008EF2FFFEE33FEEC33FCEE9DEC4A
:10018200984005FCEE9DFE0FD5F0E9E4CEFD22ED90
:10019200F8F5F0EE8420D21CFEADF075F008EF2FDA
:1001A200FFED33FD4007985006D5F0F222C398FDCB
:0501B2000FD5F0EA2268
:00000001FF
