:030000000209D220
:0C09D200787FE4F6D8FD758169020A19EF
:100B380042000000000261000002630000025F0042
:040B480000015E0149
:100D8100758901758CB1758AE075881175A88375AF
:100D9100B801758921759850E4F58E758DFD758BB7
:090DA100FD75A893D28E020C9896
:100E7200120D817D097C017F1E7E0012080080F325
:100A5E00900000E0FEA3E0FF7C007D0512097DED15
:100A6E004C7005120E8E8018900000E0FEA3E0FF81
:100A7E007C007D0512097DED64014C7003120E237E
:100A8E00900000E0FEA3E0FF7C007D0A12097DEDE0
:100A9E0064014C7003120E60900000E0FEA3E0FFB4
:100AAE007C007D1912097DED4C7003120E4D9000E5
:100ABE0000E0FEA3E0FF7C007D3212097DED4C705C
:050ACE0003120E8F224F
:03000B00020CFEE6
:100CFE00C0E0C0F0C083C082C0D075D008758CB182
:100D0E00758AE0900001E004F07006900000E004A7
:0F0D1E00F0120A5ED0D0D082D083D0F0D0E03275
:100B4C000117A5031300000001120001160001108B
:040B5C000001110083
:0C0E8200C2AC8F993099FDC299D2AC220D
:060BE2008B548A55895670
:100BE80085575A85585B85595CAF17120E82AB54EE
:100BF800AA55A956120925FF120E82AB5AAA5BA95B
:100C08005C120925FF120E82AB5AAA5BA95C900000
:080C18000112093EFF020E82E9
:100E0800AF13AD15AC14EF24FC60092403700B8CF0
:0A0E1800638D642285615F856260CE
:010E220022AD
:03002300020C5E6E
:070C5E00C0E0C0D075D01802
:030C650030982B99
:100C680085995D751200E55DB51703751001E510EE
:100C780064017017AF11051174132FF8A65DE51103
:0B0C880064037007F510F511120E0850
:050C9300D0D0D0E032DA
:060B6000016800016900BC
:100CCC00EF24FE600A047019E5681392B68012AF27
:100CDC0068EF64026005EF64047004C2B68002D24F
:100CEC00B60568D3E5689408748094804003E4F5F5
:010CFC00688F
:010CFD0022D4
:010E8E002241
:100E2300AF160516D3EF940A7480948040047512AC
:060E33000122E4F5122289
:100E60007557007558007559637B007A00795E02EA
:020E70000BE293
:100E4D00E512640170057569018003756902AF696A
:030E5D00020CCCB8
:010E8F002240
:100B6600013800012F0001274E072050726573657A
:100B76007400073141637475616C00083916090801
:100B860008080906000329000020032C0000310193
:050B9600300001280001
:0F0C200054F0FA43020CAF02120BA37F057E00C3
:0A0C2F00EF1FAC0670011E4C60249C
:100C3900755301D3E55394007480948040E875524C
:100C490002D3E5529400748094804004155280F1D7
:040C5900155380DFD0
:010C5D002274
:100E3900D2A100D2A00000000000C2A10000000061
:040E490000C2A02221
:070B9C00AB07120E39AF2771
:100BA300E4FEEEFD3395E0FCC3ED9408EC64809421
:100BB300805016EF3392A1EF25E0FF0000D2A00092
:100BC30000000000C2A00E80D900000000D2A100E6
:0E0BD300000000D2A000000020A1FD00C2A082
:010BE10022F1
:100DCC00120B9CEB120C205302FBAF02120BA3EB89
:0E0DDC00540FC4120C205302FBAF02020BA3F3
:100D2D00120B9CEB54F0FA43020D120C265302FBEE
:100D3D00AF02120BA3EB540FC454F0FA43020D1281
:0A0D4D000C265302FBAF02020BA3B9
:100C98007F33120DCC120C2B7F32120DCC120C2B81
:100CA8007F28120DCC120C2B7F0C120DCC120C2BA2
:100CB8007F06120DCC120C2B7F01120DCC7F057E06
:040CC80000020C2FEB
:060AD3008B4F8A5089518F
:100AD900C3EE648094805003E4FEFFD3EF940FEEDD
:100AE9006480948040047E007F0FC3EC648094800E
:100AF9005003E4FCFDD3ED9401EC64809480400440
:100B09007C007D01ED75F040A424802FFF120DCCEF
:100B1900AB4FAA50A95112092560130551E551702F
:0E0B290002055014F9120925FF120D2D80E26D
:010B3700229B
:100D57008B658A668967AB65AA66A967120925FF4D
:100D6700D39400748094804010120D2D7401256770
:0A0D7700F567E43566F56680DD22BD
:050DAA002430FB7D0177
:100DAF00AE07A90353050153060FED600343064039
:0D0DBF00430680AF06120DCCAF01020D2DD2
:100DEA007F40120DCCE4F9E9C394087480948050D2
:0D0DFA000C743929F8E6FF120D2D0980EA6E
:010E070022C8
:080800008E418F428C438D44B0
:10080800120DEA7B007A007920E4FDFC7F09FE12D4
:100818000AD37B007A007931E4FDFCFFFE120AD38B
:10082800E4FB7D017F05120DAFE4FB7D017F0E1215
:100838000DAF7B2E7D017F02120DAF7B2E7D017FD8
:100848000B120DAF7B7CE4FD7F07120DAF7B7C7D27
:10085800017F07120DAFAE43AF447C007D641209DF
:100868007D8E498F4A7C007D6412096BAA06AB070E
:10087800C3E5449BFFE5439AFE7D0A12097D8E4B32
:100888008F4CC3E5449BFBE5439AFA7C007D0A1232
:10089800096BC3EB9FF54EEA9EF54DAE41AF427D25
:1008A8006412097D8F828E837C007D6412096BAA95
:1008B80006AB07C3E5429BFFE5419AFE7D0A120994
:1008C8007D8E458F46C3E5429BFBE5419AFA7C0045
:1008D8007D0A12096BC3EB9FF548EA9EF547E54A86
:1008E8002430FB7D01E4FF120DAFE54C7F01120DB2
:1008F800AAE54E7F03120DAAAF82EF2430FB7D01DB
:100908007F09120DAFE5462430FB7D017F0A120DE9
:0D091800AFE5482430FB7D017F0C020DAFE0
:1009DE00020E72E493A3F8E493A34003F68001F2AF
:1009EE0008DFF48029E493A3F85407240CC8C3331A
:1009FE00C4540F4420C8834004F456800146F6DFE9
:100A0E00E4800B0102040810204080900B38E47E35
:100A1E00019360BCA3FF543F30E509541FFEE493DD
:100A2E00A360010ECF54C025E060A840B8E493A3A4
:100A3E00FAE493A3F8E493A3C8C582C8CAC583CACF
:100A4E00F0A3C8C582C8CAC583CADFE9DEE780BE87
:010B9B000059
:10092500BB010689828A83E0225002E722BBFE02D0
:09093500E32289828A83E4932203
:10093E00BB010CE58229F582E5833AF583E022506E
:10094E0006E92582F8E622BBFE06E92582F8E222B8
:0D095E00E58229F582E5833AF583E49322D2
:10096B00EF8DF0A4A8F0CF8CF0A428CE8DF0A42EA0
:02097B00FE225A
:10097D00BC000BBE0029EF8DF084FFADF022E4CC5E
:10098D00F875F008EF2FFFEE33FEEC33FCEE9DEC27
:10099D00984005FCEE9DFE0FD5F0E9E4CEFD22ED6D
:1009AD00F8F5F0EE8420D21CFEADF075F008EF2FB7
:1009BD00FFED33FD4007985006D5F0F222C398FDA8
:0509CD000FD5F0EA2245
:00000001FF
