:03000000020543B3
:0C054300787FE4F6D8FD75815802058A27
:10063800025000000255000002570000025300005B
:09064800015201C10BC10AC109F4
:1009C200758901758CB1758AE075881175A8837572
:1009D200B801758921759850E4F58E758DFD758B7A
:0909E200FD75A893D28E020736C0
:10077E001209C2120A103008071206E7C208800BCF
:10078E00AD56AC55AF58AE571201EDA206720150E0
:10079E000BAF54AE5312038FC201C206300B0512BB
:1007AE000A76C20B300A051209EBC20A3009C412CE
:0607BE000AB5C20980BD6E
:1008C900AE50AF517C007D05120162ED4C7002D231
:1008D9000BAE50AF517C007D0A120162ED64014CF0
:1008E9007002D20AAE50AF517C007D19120162ED3F
:0808F90064024C7002D20922D6
:03000B00020A5591
:100A5500C0E0C0F0C0D075D008758CB1758AE005CE
:100A650051E551700205501208C9D0D0D0F0D0E040
:010A7500324E
:10065100410000A5041100000000C18CC10D01156D
:0606610015C10E0110009E
:0C0AC500C2AC8F993099FDC299D2AC22CE
:06084D008B228A2389249E
:1008530085252885262985272A900000E0FF120A8E
:10086300C5AB22AA23A92412011CFF120AC5AB2877
:10087300AA29A92A12011CFF120AC5AB28AA29A971
:0B0883002A900001120135FF020AC597
:10093400AF12AD14AC13EF54F064F07007D20D5342
:10094400070F8002C20DEF24FE601224FE6009240A
:1009540003700E8C578D58228C538D54228C558DD8
:01096400563C
:01096500226F
:0300230002080AC6
:0E080A00C0E0C083C082C0D075D01830982CDA
:1008180085993E751500900000E0B53E02D20E3075
:100828000E18AF10051074112FF8A63EAF10EF6424
:0C083800047007C20EF510120934C298BB
:09084400D0D0D082D083D0E03284
:060667000116000117005E
:10096600EF24FE600A047019E5161392B68012AFE2
:1009760016EF64026005EF64047004C2B68002D20A
:10098600B60516D3E5169408748094804003E4F502
:01099600164A
:01099700223D
:100A7600AF150515D3EF9414748094804010D20CF2
:100A8600E4F555F556F557F558F553F55422C20CCD
:010A9600223D
:1009EB00200D101204AE300207755204C2028003B0
:1009FB007552017525007526007527577B007A0007
:050A0B00795202084DC4
:100AB500300C057517018003751702AF170209661B
:100901005072657365740041637475616C00526562
:10091100736574005375636365737366756C6C7985
:10092100004D494E54656D703A004D415854656D06
:03093100703A0019
:10066D00C107C102C108C101C106C105C103C10451
:10067D0001474E08481609080808090600083F01F9
:09068D0001050515151500C10059
:0F06970054F0FA43020CAF021207CB7F027E0031
:0A06A600EF1FAC0670011E4C603619
:1006B000753D01D3E53D94007480948040E8753C1D
:1006C0000FD3E53C9400748094804016753B02D3B0
:1006D000E53B9400748094804004153B80F1153C08
:0606E00080DF153D80CD16
:0106E60022F1
:10000E00D2A100D2A00000000000C2A1000000009A
:04001E0000C2A0225A
:0707C400AB0712000EAF4766
:1007CB00E4FEEEFD3395E0FCC3ED9408EC648094FD
:1007DB00805016EF3392A1EF25E0FF0000D2A0006E
:1007EB0000000000C2A00E80D900000000D2A100C2
:0E07FB00000000D2A000000020A1FD00C2A05E
:0108090022CC
:100A97001207C4EB1206975302FBAF021207CBEB08
:0E0AA700540FC41206975302FBAF020207CB96
:100998001207C4EB54F0FA43020D12069D5302FBF2
:1009A800AF021207CBEB540FC454F0FA43020D12F6
:0A09B800069D5302FBAF020207CBBD
:100736007F33120A977F057E001206A67F32120AC1
:10074600977F057E001206A67F28120A977F057EF0
:10075600001206A67F0C120A977F057E001206A6D7
:100766007F06120A977F057E001206A67F01120AEF
:08077600977F057E000206A634
:0405CF00E4FDFCFE4D
:0605D3008B388A39893AD9
:1005D900C3EE648094805003E4FEFFD3EF940FEEE2
:1005E9006480948040047E007F0FC3EC6480948013
:1005F9005003E4FCFDD3ED9401EC64809480400445
:100609007C007D01ED75F040A424802FFF120A972C
:10061900AB38AA39A93A12011C6013053AE53A70B8
:0E06290002053914F912011CFF12099880E233
:0106370022A0
:050A33002430FB7D01F1
:100A3800AE07A90353050153060FED6003430640B3
:0D0A4800430680AF06120A97AF010209981D
:10088E007F40120A97E4F9E9C3940874809480506B
:10089E000C744829F8E6FF1209980980EA7F48127D
:1008AE000A97E4F9E9C3940874809480500C743F5D
:0A08BE0029F8E6FF1209980980EA04
:0108C800220D
:0801ED008E228F238C248D2546
:1001F500C3E522648094805018D205C3E49523F5A5
:1002050023E49522F5227B2D7D017F09120A388092
:1002150008300505120003C205C3E52464809480F7
:100225005018D203C3E49525F525E49524F5247BE0
:100235002D7D01E4FF120A38800830030512000302
:10024500C20312088EAE24AF257C037DE81201B7E8
:100255008F2AAE24AF257C037DE81201B77E007F8F
:1002650064CFCDCFCECCCE1201B78F2BAE24AF2528
:100275007C007D641201B77E007F0ACFCDCFCECC46
:10028500CE1201B78F2CAE24AF257C007D0A12015A
:10029500B78D2DAE22AF237C037DE81201B78F26E3
:1002A500AE22AF237C037DE81201B77E007F64CFC9
:1002B500CDCFCECCCE1201B78F27AE22AF237C0097
:1002C5007D641201B77E007F0ACFCDCFCECCCE1292
:1002D50001B78F28AE22AF237C007D0A1201B78DAE
:1002E500297BFF7A0979087F011205CF7BFF7A09FF
:1002F5007901E4FDFC7F0AFE1205D37B7CE4FD7FDA
:1003050008120A387B7C7D017F08120A3812088E94
:10031500E52A7F01120A33E52B2430FB7D017F029C
:10032500120A38E52C2430FB7D017F03120A387B45
:100335002E7D017F04120A38E52D2430FB7D017FD7
:1003450005120A38E4FB7D017F06120A38E5267F8F
:100355000A120A33E5272430FB7D017F0B120A3888
:10036500E5282430FB7D017F0C120A387B2E7D01A8
:100375007F0D120A38E5292430FB7D017F0E120A14
:0A03850038E4FB7D017F0F020A3807
:1004AE00209004D208D202209102D20120960B7421
:1004BE00642558F558E43557F55720970C749C254C
:1004CE0058F55874FF3557F55720940B740A255874
:1004DE00F558E43557F55720950C74F62558F55810
:1004EE0074FF3557F5572092080558E558700205E8
:1004FE0057209308E558155870021557D3E55894B0
:10050E00B8E5576480948B400875570B7558B8D270
:10051E0006C3E5589554E5536480F8E55764809812
:10052E005008855357855458D206E590543F643F82
:05053E006002D207225B
:1006E70078227C007D007BFF7A09790F7E007F06E8
:1006F7001200F678287C007D007BFF7A0979157E49
:10070700007F0D1200F61200037B007A0079227F2A
:10071700051205CF7B007A0079287D017C007F02D6
:0F0727007E001205D37FE87E031206A6020003B0
:04038F008E228F2308
:1003930078247C007D007BFF7A0979227E007F0927
:1003A3001200F6782D7C007D007BFF7A09792B7E85
:1003B300007F091200F612088E1200037B007A00F8
:1003C3007924E4FDFCFFFE1205D37B007A00792D2E
:1003D3007D017C00E4FFFE1205D3C3E52264809413
:1003E300805018C3E49523F523E49522F522D20423
:1003F3007B2DE4FD7F0A120A3880083004051200C1
:1004030003C204AE22AF237C007D641201B7AB07A5
:10041300AE22AF237C007D641201B77E007F0ACF3A
:10042300CDCFCECCCE1201B78F36AE22AF237C0018
:100433007D0A1201B78D37EB2430FBE4FD7F0B12ED
:100443000A38E5362430FBE4FD7F0C120A387B2E94
:10045300E4FD7F0D120A38E5372430FBE4FD7F0EFF
:10046300120A38E4FBFD7F0F120A387B337D017FCC
:100473000A120A387B307D017F0B120A387B307DEC
:10048300017F0C120A387B2E7D017F0D120A387B07
:10049300307D017F0E120A38E4FB7D017F0F120AC3
:0B04A300387FE87E031206A60200036B
:100A100012088E200C0C300005120003C2007B016E
:100A2000800A200005120003D2007B21E4FDFF12A2
:020A30000A3882
:010A320022A1
:050003007F01020A97D5
:10054F0002077EE493A3F8E493A34003F68001F23D
:10055F0008DFF48029E493A3F85407240CC8C333AD
:10056F00C4540F4420C8834004F456800146F6DF7C
:10057F00E4800B0102040810204080900638E47ECE
:10058F00019360BCA3FF543F30E509541FFEE49371
:10059F00A360010ECF54C025E060A840B8E493A338
:1005AF00FAE493A3F8E493A3C8C582C8CAC583CA63
:1005BF00F0A3C8C582C8CAC583CADFE9DEE780BE1B
:010696000063
:10002600E709F608DFFA8046E709F208DFFA803EBC
:1000360088828C83E709F0A3DFFA8032E309F608A9
:10004600DFFA8078E309F208DFFA807088828C8311
:10005600E309F0A3DFFA806489828A83E0A3F608C5
:10006600DFFA805889828A83E0A3F208DFFA804C9F
:1000760080D280FA80C680D4806980F28033801076
:1000860080A680EA809A80A880DA80E280CA8033DF
:1000960089828A83ECFAE493A3C8C582C8CCC58357
:1000A600CCF0A3C8C582C8CCC583CCDFE9DEE78027
:1000B6000D89828A83E493A3F608DFF9ECFAA9F0A6
:1000C600EDFB2289828A83ECFAE0A3C8C582C8CCFC
:1000D600C583CCF0A3C8C582C8CCC583CCDFEADE15
:1000E600E880DB89828A83E493A3F208DFF980CC77
:1000F60088F0EF60010E4E60C388F0ED2402B40470
:100106000050B9F582EB2402B4040050AF23234516
:06011600822390007673C5
:10011C00BB010689828A83E0225002E722BBFE02E1
:09012C00E32289828A83E4932214
:10013500BB010CE58229F582E5833AF583E022507F
:1001450006E92582F8E622BBFE06E92582F8E222C9
:0D015500E58229F582E5833AF583E49322E3
:10016200BC000BBE0029EF8DF084FFADF022E4CC81
:10017200F875F008EF2FFFEE33FEEC33FCEE9DEC4A
:10018200984005FCEE9DFE0FD5F0E9E4CEFD22ED90
:10019200F8F5F0EE8420D21CFEADF075F008EF2FDA
:1001A200FFED33FD4007985006D5F0F222C398FDCB
:0501B2000FD5F0EA2268
:1001B700C2D5EC30E709B2D5E4C39DFDE49CFCEE63
:1001C70030E715B2D5E4C39FFFE49EFE120162C378
:1001D700E49DFDE49CFC800312016230D507C3E473
:0601E7009FFFE49EFE22D2
:00000001FF
