:0300000002053DB9
:0C053D00787FE4F6D8FD75815902058432
:1006820002480000024D07D0024FFF85024BFF389F
:03069200014A0119
:10095A00758901758CB1758AE075881175A88375DA
:10096A00B801758921759850E4F58E758DFD758BE2
:09097A00FD75A893D28E02071846
:1008640012095A30070D1200031206CFC2071200F4
:1008740003800BAD4EAC4DAF50AE4F1201EDA2054F
:10088400720050DF120003AF4CAE4B12038FC20054
:07089400C20512000380CC35
:10082900AE48AF497C007D05120162ED4C700312A0
:10083900000EAE48AF497C007D0A120162ED6401E9
:100849004C70031209ACAE48AF497C007D19120106
:0B08590062ED64024C7003120A43229F
:03000B0002098364
:10098300C0E0C0F0C083C082C0D075D008758CB100
:10099300758AE00549E54970020548120829D0D057
:0909A300D082D083D0F0D0E03204
:10069500410000A5041100000000C108C1090115B1
:0606A50000C10A01100073
:0C0A5300C2AC8F993099FDC299D2AC2240
:0607E8008B3E8A3F8940B0
:1007EE00854144854245854346900000E0FF120A4C
:1007FE0053AB3EAA3FA94012011CFF120A53AB4451
:10080E00AA45A94612011CFF120A53AB44AA45A9D8
:0B081E0046900001120135FF020A5352
:10090000AF12AD14AC13EF54F06007D20953070FC8
:100910008002C209EF24FE601224FE6009240370E5
:0F0920000E8C4F8D50228C4B8D4C228C4D8D4E5A
:01092F0022A5
:030023000207A62B
:0E07A600C0E0C083C082C0D075D01830982B40
:1007B400859947C208900000E0B54702D20A300A82
:1007C40018AF10051074112FF8A647AF10EF64048A
:0B07D4007007C20AF510120900C2985D
:0907DF00D0D0D082D083D0E032EA
:0606AB000116000117001A
:1008CE00EF24FE600A047019E5161392B68012AF7B
:1008DE0016EF64026005EF64047004C2B68002D2A3
:1008EE00B60516D3E5169408748094804003E4F59B
:0108FE0016E3
:0108FF0022D6
:10000E00AF150515D3EF940A748094804003D2087F
:04001E0022C20822D0
:1009AC003009101204A8300107754A04C2018003F3
:1009BC00754A0175410075420075434F7B007A0002
:0509CC00794A0207E872
:100A43003008057517018003751702AF170208CE2A
:10089B005072657365740041637475616C005265C9
:1008AB00736574005375636365737366756C6C79EC
:1008BB00004D494E54656D703A004D415854656D6D
:0308CB00703A0080
:1006B100C106C101C107C100C105C104C102C10315
:0D06C10001514E08521609080808090600EC
:0F06320054F0FA43020CAF021207677F027E00FA
:0A064100EF1FAC0670011E4C60367E
:10064B00753D01D3E53D94007480948040E8753C82
:10065B000FD3E53C9400748094804016753B02D315
:10066B00E53B9400748094804004153B80F1153C6D
:06067B0080DF153D80CD7B
:010681002256
:100A2F00D2A100D2A00000000000C2A1000000006F
:040A3F0000C2A0222F
:07076000AB07120A2FAF5195
:10076700E4FEEEFD3395E0FCC3ED9408EC64809461
:10077700805016EF3392A1EF25E0FF0000D2A000D2
:1007870000000000C2A00E80D900000000D2A10026
:0E079700000000D2A000000020A1FD00C2A0C2
:0107A5002231
:1009F300120760EB1206325302FBAF02120767EBDA
:0E0A0300540FC41206325302FBAF0202076703
:10093000120760EB54F0FA43020D1206385302FB23
:10094000AF02120767EB540FC454F0FA43020D12C2
:0A09500006385302FBAF02020767EE
:100718007F331209F37F057E001206417F321209EA
:10072800F37F057E001206417F281209F37F057EBC
:10073800001206417F0C1209F37F057E0012064164
:100748007F061209F37F057E001206417F01120918
:08075800F37F057E000206415B
:0405C900E4FDFCFE53
:0605CD008B388A39893ADF
:1005D300C3EE648094805003E4FEFFD3EF940FEEE8
:1005E3006480948040047E007F0FC3EC6480948019
:1005F3005003E4FCFDD3ED9401EC6480948040044B
:100603007C007D01ED75F040A424802FFF1209F3D7
:10061300AB38AA39A93A12011C6013053AE53A70BE
:0E06230002053914F912011CFF12093080E2A1
:0106310022A6
:0509D1002430FB7D0154
:1009D600AE07A90353050153060FED600343064016
:0D09E600430680AF061209F3AF010209308D
:100A11007F401209F3E4F9E9C3940874809480508B
:0D0A21000C745229F8E6FF1209300980EA32
:010A2E0022A5
:0801ED008E228F238C248D2546
:1001F500C3E522648094805018D204C3E49523F5A6
:1002050023E49522F5227B2D7D017F091209D680F5
:1002150008300405120003C204C3E52464809480F9
:100225005018D202C3E49525F525E49524F5247BE1
:100235002D7D01E4FF1209D6800830020512000366
:10024500C202120A11AE24AF257C037DE81201B764
:100255008F2AAE24AF257C037DE81201B77E007F8F
:1002650064CFCDCFCECCCE1201B78F2BAE24AF2528
:100275007C007D641201B77E007F0ACFCDCFCECC46
:10028500CE1201B78F2CAE24AF257C007D0A12015A
:10029500B78D2DAE22AF237C037DE81201B78F26E3
:1002A500AE22AF237C037DE81201B77E007F64CFC9
:1002B500CDCFCECCCE1201B78F27AE22AF237C0097
:1002C5007D641201B77E007F0ACFCDCFCECCCE1292
:1002D50001B78F28AE22AF237C007D0A1201B78DAE
:1002E500297BFF7A0879A27F011205C97BFF7A086D
:1002F500799BE4FDFC7F0AFE1205CD7B7CE4FD7F46
:10030500081209D67B7C7D017F081209D6120A11D5
:10031500E52A7F011209D1E52B2430FB7D017F02FF
:100325001209D6E52C2430FB7D017F031209D67B0B
:100335002E7D017F041209D6E52D2430FB7D017F3A
:10034500051209D6E4FB7D017F061209D6E5267F55
:100355000A1209D1E5272430FB7D017F0B1209D64E
:10036500E5282430FB7D017F0C1209D67B2E7D010B
:100375007F0D1209D6E5292430FB7D017F0E120978
:0A038500D6E4FB7D017F0F0209D6CC
:1004A800209004D207D201209102D20020960B742A
:1004B800642550F550E4354FF54F20970C749C2572
:1004C80050F55074FF354FF54F20940B740A2550A2
:1004D800F550E4354FF54F20950C74F62550F5503E
:1004E80074FF354FF54F2092080550E5507002050E
:1004F8004F209308E55015507002154FD3E55094DE
:10050800B8E54F6480948B4008754F0B7550B8D28E
:1005180005C3E550954CE54B6480F8E54F64809839
:100528005008854B4F854C50D205E590543F643FA9
:050538006002D2062262
:1006CF0078227C007D007BFF7A0879A97E007F0667
:1006DF001200F678287C007D007BFF7A0879AF7EC8
:1006EF00007F0D1200F67B007A0079227F0512053C
:1006FF00C97B007A0079287D017C007F027E001281
:09070F0005CD7FE87E03020641DE
:04038F008E228F2308
:1003930078247C007D007BFF7A0879BC7E007F098E
:1003A3001200F6782D7C007D007BFF7A0879C57EEC
:1003B300007F091200F6120A117B007A007924E407
:1003C300FDFCFFFE1205CD7B007A00792D7D017CBB
:1003D30000E4FFFE1205CDC3E5226480948050182B
:1003E300C3E49523F523E49522F522D2037B2DE480
:1003F300FD7F0A1209D68008300305120003C203E9
:10040300AE22AF237C007D641201B7AB07AE22AFEF
:10041300237C007D641201B77E007F0ACFCDCFCE4F
:10042300CCCE1201B78F36AE22AF237C007D0A12E9
:1004330001B78D37EB2430FBE4FD7F0B1209D6E5C2
:10044300362430FBE4FD7F0C1209D67B2EE4FD7FBE
:100453000D1209D6E5372430FBE4FD7F0E1209D6D1
:10046300E4FBFD7F0F1209D67B337D017F0A12095E
:10047300D67B307D017F0B1209D67B307D017F0C4B
:100483001209D67B2E7D017F0D1209D67B307D01AB
:100493007F0E1209D6E4FB7D017F0F1209D67FE898
:0504A3007E030206418A
:050003007F010209F37A
:10054900020864E493A3F8E493A34003F68001F25C
:1005590008DFF48029E493A3F85407240CC8C333B3
:10056900C4540F4420C8834004F456800146F6DF82
:10057900E4800B0102040810204080900682E47E8A
:10058900019360BCA3FF543F30E509541FFEE49377
:10059900A360010ECF54C025E060A840B8E493A33E
:1005A900FAE493A3F8E493A3C8C582C8CAC583CA69
:1005B900F0A3C8C582C8CAC583CADFE9DEE780BE21
:0106CE00002B
:10002600E709F608DFFA8046E709F208DFFA803EBC
:1000360088828C83E709F0A3DFFA8032E309F608A9
:10004600DFFA8078E309F208DFFA807088828C8311
:10005600E309F0A3DFFA806489828A83E0A3F608C5
:10006600DFFA805889828A83E0A3F208DFFA804C9F
:1000760080D280FA80C680D4806980F28033801076
:1000860080A680EA809A80A880DA80E280CA8033DF
:1000960089828A83ECFAE493A3C8C582C8CCC58357
:1000A600CCF0A3C8C582C8CCC583CCDFE9DEE78027
:1000B6000D89828A83E493A3F608DFF9ECFAA9F0A6
:1000C600EDFB2289828A83ECFAE0A3C8C582C8CCFC
:1000D600C583CCF0A3C8C582C8CCC583CCDFEADE15
:1000E600E880DB89828A83E493A3F208DFF980CC77
:1000F60088F0EF60010E4E60C388F0ED2402B40470
:100106000050B9F582EB2402B4040050AF23234516
:06011600822390007673C5
:10011C00BB010689828A83E0225002E722BBFE02E1
:09012C00E32289828A83E4932214
:10013500BB010CE58229F582E5833AF583E022507F
:1001450006E92582F8E622BBFE06E92582F8E222C9
:0D015500E58229F582E5833AF583E49322E3
:10016200BC000BBE0029EF8DF084FFADF022E4CC81
:10017200F875F008EF2FFFEE33FEEC33FCEE9DEC4A
:10018200984005FCEE9DFE0FD5F0E9E4CEFD22ED90
:10019200F8F5F0EE8420D21CFEADF075F008EF2FDA
:1001A200FFED33FD4007985006D5F0F222C398FDCB
:0501B2000FD5F0EA2268
:1001B700C2D5EC30E709B2D5E4C39DFDE49CFCEE63
:1001C70030E715B2D5E4C39FFFE49EFE120162C378
:1001D700E49DFDE49CFC800312016230D507C3E473
:0601E7009FFFE49EFE22D2
:00000001FF
