:0300000002047E79
:0C047E00787FE4F6D8FD75815A0204C5B1
:1006A20002490000024E029A025000E9024C003256
:0306B200014B01F8
:10086D00758901758CB1758AE075881175A88375C8
:10087D00B801758921759850E4F58E758DFD758BD0
:09088D00FD75A893D28E02061439
:1007A50012086D30040D1200031205CBC2041200AD
:1007B50003800BAD4FAC4EAF51AE501201B7A20244
:1007C500720050DF120003AF4DAE4C1202F9C200A9
:0707D500C20212000380CCF8
:10076A00AE49AF4A7C007D05120162ED4C7003125E
:10077A00000EAE49AF4A7C007D0A120162ED6401A7
:10078A004C70031208E1AE49AF4A7C007D19120190
:0B079A0062ED64024C7003120975222E
:03000B0002089652
:10089600C0E0C0F0C083C082C0D075D008758CB1EE
:1008A600758AE0054AE54A7002054912076AD0D002
:0908B600D082D083D0F0D0E032F2
:1006B500410000A5041100000000C105011500C19D
:0406C500060110001A
:0C098500C2AC8F993099FDC299D2AC220F
:060729008B3F8A4089416C
:10072F00854245854346854447900000E0FF120906
:10073F0085AB3FAA40A94112011CFF120985AB45A9
:10074F00AA46A94712011CFF120985AB45AA46A963
:0B075F0047900001120135FF020985E0
:1008BF00AF12AD14AC13EF24FE601224FE600924B6
:1008CF0003700E8C508D51228C4C8D4D228C4E8D81
:0108DF004FC9
:0108E00022F5
:030023000206E7EB
:0E06E700C0E0C083C082C0D075D01830982B00
:1006F500859948C205900000E0B54802D20630064B
:1007050018AF10051074112FF8A648AF10EF640448
:0B0715007007C206F5101208BFC29862
:09072000D0D0D082D083D0E032A9
:0606C900011600011700FC
:10081100EF24FE600A047019E5161392B68012AF38
:1008210016EF64026005EF64047004C2B68002D260
:10083100B60516D3E5169408748094804003E4F558
:0108410016A0
:010842002293
:10000E00AF150515D3EF940A748094804003D20582
:04001E0022C20522D3
:1008E1001203E9300107754B04C2018003754B0106
:1008F1007542007543007544507B007A00794B02C4
:020901000729C4
:100975003005057517018003751702AF17020811B9
:1007DC005072657365740041637475616C00526589
:1007EC00736574005375636365737366756C6C79AC
:1007FC0000204D494E54656D703A00204D415854BF
:05080C00656D703A006B
:1006CF00C103C101C104C100C10201524E0853163A
:0706DF0009080808090600E4
:0F057B0054F0FA43020CAF021206637F027E00B7
:0A058A00EF1FAC0670011E4C603636
:10059400753E01D3E53E94007480948040E8753D37
:1005A4000FD3E53D9400748094804016753C02D3CB
:1005B400E53C9400748094804004153C80F1153D22
:0605C40080DF153E80CD32
:0105CA00220E
:10096100D2A100D2A00000000000C2A1000000003E
:0409710000C2A022FE
:07065C00AB07120961AF5268
:10066300E4FEEEFD3395E0FCC3ED9408EC64809466
:10067300805016EF3392A1EF25E0FF0000D2A000D7
:1006830000000000C2A00E80D900000000D2A1002B
:0E069300000000D2A000000020A1FD00C2A0C7
:0106A1002236
:1009250012065CEB12057B5302FBAF02120663EB6A
:0E093500540FC412057B5302FBAF020206638F
:1008430012065CEB54F0FA43020D1205815302FBCE
:10085300AF02120663EB540FC454F0FA43020D12B5
:0A08630005815302FBAF0202066399
:100614007F331209257F057E0012058A7F32120975
:10062400257F057E0012058A7F281209257F057E15
:100634000012058A7F0C1209257F057E0012058AA7
:100644007F061209257F057E0012058A7F011209A3
:08065400257F057E0002058AE6
:0C050A007BFF7A0779DC7F09E4FDFCFE32
:060516008B398A3A893B93
:10051C00C3EE648094805003E4FEFFD3EF940FEE9F
:10052C006480948040047E007F0FC3EC64809480D0
:10053C005003E4FCFDD3ED9401EC64809480400402
:10054C007C007D01ED75F040A424802FFF1209255D
:10055C00AB39AA3AA93B12011C6013053BE53B7071
:0E056C0002053A14F912011CFF12084380E246
:01057A00225E
:050903002430FB7D0122
:10090800AE07A90353050153060FED6003430640E4
:0D091800430680AF06120925AF0102084317
:100943007F40120925E4F9E9C39408748094805028
:0D0953000C745329F8E6FF1208430980EAEE
:010960002274
:0801B7008E218F228C238D2480
:1001BF00120943AE23AF247C007D641201628F28A5
:1001CF00AE23AF247C007D641201627E007F0ACFD4
:1001DF00CDCFCECCCE1201628F29AE23AF247C00BF
:1001EF007D0A1201628D2AAE21AF227C007D64123E
:1001FF0001628F25AE21AF227C007D641201627EE9
:10020F00007F0ACFCDCFCECCCE1201628F26AE218A
:10021F00AF227C007D0A1201628D2712050A7BFF37
:10022F007A0779E3E4FDFCFFFE120516E4FB7D017E
:10023F007F05120908E4FB7D017F0E1209087B7C04
:10024F00E4FD7F071209087B7C7D017F07120908F7
:10025F0012094312050A7BFF7A0779E3E4FDFCFFDD
:10026F00FE1205167B2E7D017F021209087B2E7D63
:10027F00017F0B1209087B7CE4FD7F071209087BC5
:10028F007C7D017F07120908E5282430FB7D01E4FE
:10029F00FF120908E5297F011209037B2E7D017FDB
:1002AF0002120908E52A2430FB7D017F0312090899
:1002BF00E4FB7D017F05120908E5252430FB7D0154
:1002CF007F09120908E5267F0A1209037B2E7D019B
:1002DF007F0B120908E5272430FB7D017F0C1209E3
:0A02EF0008E4FB7D017F0E02090800
:1003E900209004D204D201209102D20020960B74ED
:1003F900642551F551E43550F55020970C749C252E
:1004090051F55174FF3550F55020940B740A25515C
:10041900F551E43550F55020950C74F62551F551F8
:1004290074FF3550F5502092080551E551700205C9
:1004390050209308E551155170021550D3E5519498
:10044900E7E5506480948340087550037551E7D2FD
:1004590002C3E551954DE54C6480F8E550648098F8
:100469005008854C50854D51D202E590543F643F68
:050479006002D2032225
:1005CB0078217C007D007BFF7A0779EA7E007F062D
:1005DB001200F678277C007D007BFF7A0779F07E8E
:1005EB00007F0D1200F67B007A0079217F05120542
:1005FB00127B007A0079277D017C007F027E00123E
:09060B0005167FE87E0302058A52
:0402F9008E218F22A1
:1002FD0078237C007D007BFF7A0779FD7E007F0AE5
:10030D001200F6782D7C007D007BFF7A0879077E40
:10031D00007F0A1200F61209437B007A007923E46C
:10032D00FDFCFFFE1205167B007A00792D7D017C08
:10033D0000E4FFFE120516AE21AF227C007D641293
:10034D000162AB07EB75F064A4FFC3E5229FFFE5E7
:10035D002195F0FE7C007D0A1201628F37EB75F05E
:10036D0064A4FEC3E5229EFFE53775F00AA4FEC323
:10037D00EF9EF538EB2430FBE4FD7F0A120908E50A
:10038D00372430FBE4FD7F0B1209087B2EE4FD7F43
:10039D000C120908E5382430FBE4FD7F0D12090825
:1003AD00E4FBFD7F0E1209087B397D017F0A1209DE
:1003BD00087B397D017F0B1209087B2E7D017F0C97
:1003CD001209087B397D017F0D120908E4FB7D01BF
:0C03DD007F0E1209087FE87E0302058AEB
:050003007F0102092548
:10048A000207A5E493A3F8E493A34003F68001F2DC
:10049A0008DFF48029E493A3F85407240CC8C33373
:1004AA00C4540F4420C8834004F456800146F6DF42
:1004BA00E4800B01020408102040809006A2E47E2A
:1004CA00019360BCA3FF543F30E509541FFEE49337
:1004DA00A360010ECF54C025E060A840B8E493A3FE
:1004EA00FAE493A3F8E493A3C8C582C8CAC583CA29
:1004FA00F0A3C8C582C8CAC583CADFE9DEE780BEE1
:0106E6000013
:10002600E709F608DFFA8046E709F208DFFA803EBC
:1000360088828C83E709F0A3DFFA8032E309F608A9
:10004600DFFA8078E309F208DFFA807088828C8311
:10005600E309F0A3DFFA806489828A83E0A3F608C5
:10006600DFFA805889828A83E0A3F208DFFA804C9F
:1000760080D280FA80C680D4806980F28033801076
:1000860080A680EA809A80A880DA80E280CA8033DF
:1000960089828A83ECFAE493A3C8C582C8CCC58357
:1000A600CCF0A3C8C582C8CCC583CCDFE9DEE78027
:1000B6000D89828A83E493A3F608DFF9ECFAA9F0A6
:1000C600EDFB2289828A83ECFAE0A3C8C582C8CCFC
:1000D600C583CCF0A3C8C582C8CCC583CCDFEADE15
:1000E600E880DB89828A83E493A3F208DFF980CC77
:1000F60088F0EF60010E4E60C388F0ED2402B40470
:100106000050B9F582EB2402B4040050AF23234516
:06011600822390007673C5
:10011C00BB010689828A83E0225002E722BBFE02E1
:09012C00E32289828A83E4932214
:10013500BB010CE58229F582E5833AF583E022507F
:1001450006E92582F8E622BBFE06E92582F8E222C9
:0D015500E58229F582E5833AF583E49322E3
:10016200BC000BBE0029EF8DF084FFADF022E4CC81
:10017200F875F008EF2FFFEE33FEEC33FCEE9DEC4A
:10018200984005FCEE9DFE0FD5F0E9E4CEFD22ED90
:10019200F8F5F0EE8420D21CFEADF075F008EF2FDA
:1001A200FFED33FD4007985006D5F0F222C398FDCB
:0501B2000FD5F0EA2268
:00000001FF
