:03000000020543B3
:0C054300787FE4F6D8FD75816202058A1D
:10063800025A0000025F07D00261FF85025DFF38A1
:03064800015C0151
:10096D00758901758CB1758AE075881175A88375C7
:10097D00B801758921759850E4F58E758DFD758BCF
:09098D00FD75A893D28E0207311A
:1009150012096D1209E43008071206E2C208800BBD
:10092500AD60AC5FAF62AE611201EDA2067201501F
:0E093500E2AF5EAE5D12038FC201C20680D536
:10084300AE5AAF5B7C007D05120162ED4C70031262
:10085300000EAE5AAF5B7C007D0A120162ED6401AB
:100863004C70031209BFAE5AAF5B7C007D191201B5
:0B08730062ED64024C7003120A79224F
:03000B0002099651
:10099600C0E0C0F0C083C082C0D075D008758CB1ED
:1009A600758AE0055BE55B7002055A120843D0D0F4
:0909B600D082D083D0F0D0E032F1
:10064B00410000A5041100000000C109C10A0115F9
:06065B0000C10B011000BC
:0C0A8900C2AC8F993099FDC299D2AC220A
:060802008B3E8A3F894095
:10080800854144854245854346900000E0FF120A31
:1008180089AB3EAA3FA94012011CFF120A89AB44CA
:10082800AA45A94612011CFF120A89AB44AA45A988
:0B08380046900001120135FF020A8902
:1008B100AF12AD14AC13EF54F064F07007D20A53C9
:1008C100070F8002C20AEF24FE601224FE60092491
:1008D10003700E8C618D62228C5D8D5E228C5F8D2A
:0108E10060B6
:0108E20022F3
:030023000207BF12
:0E07BF00C0E0C083C082C0D075D01830982C26
:1007CD00859947751500900000E0B54702D20B30B2
:1007DD000B18AF10051074112FF8A647AF10EF646A
:0C07ED00047007C20BF5101208B1C2988E
:0907F900D0D0D082D083D0E032D0
:0606610001160001170064
:1008E300EF24FE600A047019E5161392B68012AF66
:1008F30016EF64026005EF64047004C2B68002D28E
:10090300B60516D3E5169408748094804003E4F585
:0109130016CD
:0109140022C0
:10000E00AF150515D3EF940A748094804003D2097E
:04001E0022C20922CF
:1009BF00200A101204AE300207755C04C2028003D5
:1009CF00755C017541007542007543617B007A00CB
:0509DF00795C02080232
:100A79003009057517018003751702AF170208E3DE
:10087E005072657365740041637475616C005265E6
:10088E00736574005375636365737366756C6C7909
:10089E00004D494E54656D703A004D415854656D8A
:0308AE00703A009D
:10066700C107C102C108C101C106C105C103C10457
:1006770001514E08521609080808090600094801E1
:0A0687000105051515151500C10049
:0F06920054F0FA43020CAF021207807F027E0081
:0A06A100EF1FAC0670011E4C60361E
:1006AB00753D01D3E53D94007480948040E8753C22
:1006BB000FD3E53C9400748094804016753B02D3B5
:1006CB00E53B9400748094804004153B80F1153C0D
:0606DB0080DF153D80CD1B
:0106E10022F6
:100A6500D2A100D2A00000000000C2A10000000039
:040A750000C2A022F9
:07077900AB07120A65AF5146
:10078000E4FEEEFD3395E0FCC3ED9408EC64809448
:10079000805016EF3392A1EF25E0FF0000D2A000B9
:1007A00000000000C2A00E80D900000000D2A1000D
:0E07B000000000D2A000000020A1FD00C2A0A9
:0107BE002218
:100A2900120779EB1206925302FBAF02120780EB11
:0E0A3900540FC41206925302FBAF0202078054
:10094300120779EB54F0FA43020D1206985302FB97
:10095300AF02120780EB540FC454F0FA43020D1296
:0A09630006985302FBAF0202078062
:100731007F33120A297F057E001206A17F32120A39
:10074100297F057E001206A17F28120A297F057ED6
:10075100001206A17F0C120A297F057E001206A154
:100761007F06120A297F057E001206A17F01120A67
:08077100297F057E000206A1AC
:0405CF00E4FDFCFE4D
:0605D3008B388A39893AD9
:1005D900C3EE648094805003E4FEFFD3EF940FEEE2
:1005E9006480948040047E007F0FC3EC6480948013
:1005F9005003E4FCFDD3ED9401EC64809480400445
:100609007C007D01ED75F040A424802FFF120A299A
:10061900AB38AA39A93A12011C6013053AE53A70B8
:0E06290002053914F912011CFF12094380E288
:0106370022A0
:050A07002430FB7D011D
:100A0C00AE07A90353050153060FED6003430640DF
:0D0A1C00430680AF06120A29AF010209430C
:100A47007F40120A29E4F9E9C3940874809480501E
:0D0A57000C745229F8E6FF1209430980EAE9
:010A6400226F
:0801ED008E228F238C248D2546
:1001F500C3E522648094805018D205C3E49523F5A5
:1002050023E49522F5227B2D7D017F09120A0C80BE
:1002150008300505120003C205C3E52464809480F7
:100225005018D203C3E49525F525E49524F5247BE0
:100235002D7D01E4FF120A0C80083003051200032E
:10024500C203120A47AE24AF257C037DE81201B72D
:100255008F2AAE24AF257C037DE81201B77E007F8F
:1002650064CFCDCFCECCCE1201B78F2BAE24AF2528
:100275007C007D641201B77E007F0ACFCDCFCECC46
:10028500CE1201B78F2CAE24AF257C007D0A12015A
:10029500B78D2DAE22AF237C037DE81201B78F26E3
:1002A500AE22AF237C037DE81201B77E007F64CFC9
:1002B500CDCFCECCCE1201B78F27AE22AF237C0097
:1002C5007D641201B77E007F0ACFCDCFCECCCE1292
:1002D50001B78F28AE22AF237C007D0A1201B78DAE
:1002E500297BFF7A0879857F011205CF7BFF7A0884
:1002F500797EE4FDFC7F0AFE1205D37B7CE4FD7F5D
:1003050008120A0C7B7C7D017F08120A0C120A4731
:10031500E52A7F01120A07E52B2430FB7D017F02C8
:10032500120A0CE52C2430FB7D017F03120A0C7B9D
:100335002E7D017F04120A0CE52D2430FB7D017F03
:1003450005120A0CE4FB7D017F06120A0CE5267FE7
:100355000A120A07E5272430FB7D017F0B120A0CE0
:10036500E5282430FB7D017F0C120A0C7B2E7D01D4
:100375007F0D120A0CE5292430FB7D017F0E120A40
:0A0385000CE4FB7D017F0F020A0C5F
:1004AE00209004D208D202209102D20120960B7421
:1004BE00642562F562E43561F56120970C749C2524
:1004CE0062F56274FF3561F56120940B740A256242
:1004DE00F562E43561F56120950C74F62562F562DE
:1004EE0074FF3561F5612092080562E562700205C0
:1004FE0061209308E562156270021561D3E562947E
:10050E00B8E5616480948B400875610B7562B8D252
:10051E0006C3E562955EE55D6480F8E561648098EA
:10052E005008855D61855E62D206E590543F643F5A
:05053E006002D207225B
:1006E20078227C007D007BFF7A08798C7E007F0671
:1006F2001200F678287C007D007BFF7A0879927ED2
:10070200007F0D1200F61200037B007A0079227F2F
:10071200051205CF7B007A0079287D017C007F02DB
:0F0722007E001205D37FE87E031206A1020003BA
:04038F008E228F2308
:1003930078247C007D007BFF7A08799F7E007F09AB
:1003A3001200F6782D7C007D007BFF7A0879A87E09
:1003B300007F091200F6120A471200037B007A003D
:1003C3007924E4FDFCFFFE1205D37B007A00792D2E
:1003D3007D017C00E4FFFE1205D3C3E52264809413
:1003E300805018C3E49523F523E49522F522D20423
:1003F3007B2DE4FD7F0A120A0C80083004051200ED
:1004030003C204AE22AF237C007D641201B7AB07A5
:10041300AE22AF237C007D641201B77E007F0ACF3A
:10042300CDCFCECCCE1201B78F36AE22AF237C0018
:100433007D0A1201B78D37EB2430FBE4FD7F0B12ED
:100443000A0CE5362430FBE4FD7F0C120A0C7B2EEC
:10045300E4FD7F0D120A0CE5372430FBE4FD7F0E2B
:10046300120A0CE4FBFD7F0F120A0C7B337D017F24
:100473000A120A0C7B307D017F0B120A0C7B307D44
:10048300017F0C120A0C7B2E7D017F0D120A0C7B5F
:10049300307D017F0E120A0CE4FB7D017F0F120AEF
:0B04A3000C7FE87E031206A10200039C
:1009E400120A4720090C300005120003C2007B01E3
:1009F400800A200005120003D2007B21E4FDFF12CF
:020A04000A0CDA
:010A060022CD
:050003007F01020A2943
:10054F00020915E493A3F8E493A34003F68001F2A4
:10055F0008DFF48029E493A3F85407240CC8C333AD
:10056F00C4540F4420C8834004F456800146F6DF7C
:10057F00E4800B0102040810204080900638E47ECE
:10058F00019360BCA3FF543F30E509541FFEE49371
:10059F00A360010ECF54C025E060A840B8E493A338
:1005AF00FAE493A3F8E493A3C8C582C8CAC583CA63
:1005BF00F0A3C8C582C8CAC583CADFE9DEE780BE1B
:010691000068
:10002600E709F608DFFA8046E709F208DFFA803EBC
:1000360088828C83E709F0A3DFFA8032E309F608A9
:10004600DFFA8078E309F208DFFA807088828C8311
:10005600E309F0A3DFFA806489828A83E0A3F608C5
:10006600DFFA805889828A83E0A3F208DFFA804C9F
:1000760080D280FA80C680D4806980F28033801076
:1000860080A680EA809A80A880DA80E280CA8033DF
:1000960089828A83ECFAE493A3C8C582C8CCC58357
:1000A600CCF0A3C8C582C8CCC583CCDFE9DEE78027
:1000B6000D89828A83E493A3F608DFF9ECFAA9F0A6
:1000C600EDFB2289828A83ECFAE0A3C8C582C8CCFC
:1000D600C583CCF0A3C8C582C8CCC583CCDFEADE15
:1000E600E880DB89828A83E493A3F208DFF980CC77
:1000F60088F0EF60010E4E60C388F0ED2402B40470
:100106000050B9F582EB2402B4040050AF23234516
:06011600822390007673C5
:10011C00BB010689828A83E0225002E722BBFE02E1
:09012C00E32289828A83E4932214
:10013500BB010CE58229F582E5833AF583E022507F
:1001450006E92582F8E622BBFE06E92582F8E222C9
:0D015500E58229F582E5833AF583E49322E3
:10016200BC000BBE0029EF8DF084FFADF022E4CC81
:10017200F875F008EF2FFFEE33FEEC33FCEE9DEC4A
:10018200984005FCEE9DFE0FD5F0E9E4CEFD22ED90
:10019200F8F5F0EE8420D21CFEADF075F008EF2FDA
:1001A200FFED33FD4007985006D5F0F222C398FDCB
:0501B2000FD5F0EA2268
:1001B700C2D5EC30E709B2D5E4C39DFDE49CFCEE63
:1001C70030E715B2D5E4C39FFFE49EFE120162C378
:1001D700E49DFDE49CFC800312016230D507C3E473
:0601E7009FFFE49EFE22D2
:00000001FF
