:03000000020543B3
:0C054300787FE4F6D8FD75816102058A1E
:1006380002590000025E000002600000025C00C86F
:03064800015B0152
:1009A700758901758CB1758AE075881175A883758D
:1009B700B801758921759850E4F58E758DFD758B95
:0909C700FD75A893D28E020730E1
:10094F001209A7120A1E3008071206E1C208800B0F
:10095F00AD5FAC5EAF61AE601201EDA206720150E9
:0E096F00E2AF5DAE5C12038FC201C20680D5FE
:10084200AE59AF5A7C007D05120162ED4C70031265
:10085200000EAE59AF5A7C007D0A120162ED6401AE
:100862004C70031209F9AE59AF5A7C007D1912017E
:0B08720062ED64024C7003120A952234
:03000B000209D017
:1009D000C0E0C0F0C083C082C0D075D008758CB1B3
:1009E000758AE0055AE55A70020559120842D0D0BE
:0909F000D082D083D0F0D0E032B7
:10064B00410000A5041100000000C189C10A011579
:06065B0015C10B011000A7
:0C0AA500C2AC8F993099FDC299D2AC22EE
:060801008B3E8A3F894096
:10080700854144854245854346900000E0FF120A32
:10081700A5AB3EAA3FA94012011CFF120AA5AB4493
:10082700AA45A94612011CFF120AA5AB44AA45A96D
:0B08370046900001120135FF020AA5E7
:1008EB00AF12AD14AC13EF54F064F07007D20A538F
:1008FB00070F8002C20AEF24FE601224FE60092457
:10090B0003700E8C608D61228C5C8D5D228C5E8DF4
:01091B005F7C
:01091C0022B8
:030023000207BE13
:0E07BE00C0E0C083C082C0D075D01830982C27
:1007CC00859947751500900000E0B54702D20B30B3
:1007DC000B18AF10051074112FF8A647AF10EF646B
:0C07EC00047007C20BF5101208EBC29855
:0907F800D0D0D082D083D0E032D1
:0606610001160001170064
:10091D00EF24FE600A047019E5161392B68012AF2B
:10092D0016EF64026005EF64047004C2B68002D253
:10093D00B60516D3E5169408748094804003E4F54B
:01094D001693
:01094E002286
:10000E00AF150515D3EF9414748094804003D20974
:04001E0022C20922CF
:1009F900200A101204AE300207755B04C20280039C
:100A0900755B017541007542007543607B007A0092
:050A1900795B020801F9
:100A95003009057517018003751702AF1702091D87
:1008B8005072657365740041637475616C005265AC
:1008C800736574005375636365737366756C6C79CF
:1008D800004D494E54656D703A004D415854656D50
:0308E800703A0063
:10066700C107C102C108C101C106C105C103C10457
:1006770001504E08511609080808090600084801E4
:0906870001050515151500C1005F
:0F06910054F0FA43020CAF0212077F7F027E0083
:0A06A000EF1FAC0670011E4C60361F
:1006AA00753D01D3E53D94007480948040E8753C23
:1006BA000FD3E53C9400748094804016753B02D3B6
:1006CA00E53B9400748094804004153B80F1153C0E
:0606DA0080DF153D80CD1C
:0106E00022F7
:100A8100D2A100D2A00000000000C2A1000000001D
:040A910000C2A022DD
:07077800AB07120A81AF502C
:10077F00E4FEEEFD3395E0FCC3ED9408EC64809449
:10078F00805016EF3392A1EF25E0FF0000D2A000BA
:10079F0000000000C2A00E80D900000000D2A1000E
:0E07AF00000000D2A000000020A1FD00C2A0AA
:0107BD002219
:100A6300120778EB1206915302FBAF0212077FEBDA
:0E0A7300540FC41206915302FBAF0202077F1C
:10097D00120778EB54F0FA43020D1206975302FB5F
:10098D00AF0212077FEB540FC454F0FA43020D125D
:0A099D0006975302FBAF0202077F2A
:100730007F33120A637F057E001206A07F32120A01
:10074000637F057E001206A07F28120A637F057E64
:10075000001206A07F0C120A637F057E001206A01D
:100760007F06120A637F057E001206A07F01120A2F
:08077000637F057E000206A074
:0405CF00E4FDFCFE4D
:0605D3008B388A39893AD9
:1005D900C3EE648094805003E4FEFFD3EF940FEEE2
:1005E9006480948040047E007F0FC3EC6480948013
:1005F9005003E4FCFDD3ED9401EC64809480400445
:100609007C007D01ED75F040A424802FFF120A6360
:10061900AB38AA39A93A12011C6013053AE53A70B8
:0E06290002053914F912011CFF12097D80E24E
:0106370022A0
:050A41002430FB7D01E3
:100A4600AE07A90353050153060FED6003430640A5
:0D0A5600430680AF06120A63AF0102097D5E
:10087D007F40120A63E4F9E9C394087480948050B0
:10088D000C745129F8E6FF12097D0980EA7F4812A0
:10089D000A63E4F9E9C3940874809480500C744899
:0A08AD0029F8E6FF12097D0980EA30
:0108B700221E
:0801ED008E228F238C248D2546
:1001F500C3E522648094805018D205C3E49523F5A5
:1002050023E49522F5227B2D7D017F09120A468084
:1002150008300505120003C205C3E52464809480F7
:100225005018D203C3E49525F525E49524F5247BE0
:100235002D7D01E4FF120A468008300305120003F4
:10024500C20312087DAE24AF257C037DE81201B7F9
:100255008F2AAE24AF257C037DE81201B77E007F8F
:1002650064CFCDCFCECCCE1201B78F2BAE24AF2528
:100275007C007D641201B77E007F0ACFCDCFCECC46
:10028500CE1201B78F2CAE24AF257C007D0A12015A
:10029500B78D2DAE22AF237C037DE81201B78F26E3
:1002A500AE22AF237C037DE81201B77E007F64CFC9
:1002B500CDCFCECCCE1201B78F27AE22AF237C0097
:1002C5007D641201B77E007F0ACFCDCFCECCCE1292
:1002D50001B78F28AE22AF237C007D0A1201B78DAE
:1002E500297BFF7A0879BF7F011205CF7BFF7A084A
:1002F50079B8E4FDFC7F0AFE1205D37B7CE4FD7F23
:1003050008120A467B7C7D017F08120A4612087D89
:10031500E52A7F01120A41E52B2430FB7D017F028E
:10032500120A46E52C2430FB7D017F03120A467B29
:100335002E7D017F04120A46E52D2430FB7D017FC9
:1003450005120A46E4FB7D017F06120A46E5267F73
:100355000A120A41E5272430FB7D017F0B120A466C
:10036500E5282430FB7D017F0C120A467B2E7D019A
:100375007F0D120A46E5292430FB7D017F0E120A06
:0A03850046E4FB7D017F0F020A46EB
:1004AE00209004D208D202209102D20120960B7421
:1004BE00642561F561E43560F56020970C749C2528
:1004CE0061F56174FF3560F56020940B740A256147
:1004DE00F561E43560F56020950C74F62561F561E3
:1004EE0074FF3560F5602092080561E561700205C4
:1004FE0060209308E561156170021560D3E5619483
:10050E00B8E5606480948B400875600B7561B8D255
:10051E0006C3E561955DE55C6480F8E560648098EE
:10052E005008855C60855D61D206E590543F643F5E
:05053E006002D207225B
:1006E10078227C007D007BFF7A0879C67E007F0638
:1006F1001200F678287C007D007BFF7A0879CC7E99
:10070100007F0D1200F61200037B007A0079227F30
:10071100051205CF7B007A0079287D017C007F02DC
:0F0721007E001205D37FE87E031206A0020003BC
:04038F008E228F2308
:1003930078247C007D007BFF7A0879D97E007F0971
:1003A3001200F6782D7C007D007BFF7A0879E27ECF
:1003B300007F091200F612087D1200037B007A0009
:1003C3007924E4FDFCFFFE1205D37B007A00792D2E
:1003D3007D017C00E4FFFE1205D3C3E52264809413
:1003E300805018C3E49523F523E49522F522D20423
:1003F3007B2DE4FD7F0A120A4680083004051200B3
:1004030003C204AE22AF237C007D641201B7AB07A5
:10041300AE22AF237C007D641201B77E007F0ACF3A
:10042300CDCFCECCCE1201B78F36AE22AF237C0018
:100433007D0A1201B78D37EB2430FBE4FD7F0B12ED
:100443000A46E5362430FBE4FD7F0C120A467B2E78
:10045300E4FD7F0D120A46E5372430FBE4FD7F0EF1
:10046300120A46E4FBFD7F0F120A467B337D017FB0
:100473000A120A467B307D017F0B120A467B307DD0
:10048300017F0C120A467B2E7D017F0D120A467BEB
:10049300307D017F0E120A46E4FB7D017F0F120AB5
:0B04A300467FE87E031206A002000363
:100A1E0012087D20090C300005120003C2007B0174
:100A2E00800A200005120003D2007B21E4FDFF1294
:020A3E000A4666
:010A40002293
:050003007F01020A6309
:10054F0002094FE493A3F8E493A34003F68001F26A
:10055F0008DFF48029E493A3F85407240CC8C333AD
:10056F00C4540F4420C8834004F456800146F6DF7C
:10057F00E4800B0102040810204080900638E47ECE
:10058F00019360BCA3FF543F30E509541FFEE49371
:10059F00A360010ECF54C025E060A840B8E493A338
:1005AF00FAE493A3F8E493A3C8C582C8CAC583CA63
:1005BF00F0A3C8C582C8CAC583CADFE9DEE780BE1B
:010690000069
:10002600E709F608DFFA8046E709F208DFFA803EBC
:1000360088828C83E709F0A3DFFA8032E309F608A9
:10004600DFFA8078E309F208DFFA807088828C8311
:10005600E309F0A3DFFA806489828A83E0A3F608C5
:10006600DFFA805889828A83E0A3F208DFFA804C9F
:1000760080D280FA80C680D4806980F28033801076
:1000860080A680EA809A80A880DA80E280CA8033DF
:1000960089828A83ECFAE493A3C8C582C8CCC58357
:1000A600CCF0A3C8C582C8CCC583CCDFE9DEE78027
:1000B6000D89828A83E493A3F608DFF9ECFAA9F0A6
:1000C600EDFB2289828A83ECFAE0A3C8C582C8CCFC
:1000D600C583CCF0A3C8C582C8CCC583CCDFEADE15
:1000E600E880DB89828A83E493A3F208DFF980CC77
:1000F60088F0EF60010E4E60C388F0ED2402B40470
:100106000050B9F582EB2402B4040050AF23234516
:06011600822390007673C5
:10011C00BB010689828A83E0225002E722BBFE02E1
:09012C00E32289828A83E4932214
:10013500BB010CE58229F582E5833AF583E022507F
:1001450006E92582F8E622BBFE06E92582F8E222C9
:0D015500E58229F582E5833AF583E49322E3
:10016200BC000BBE0029EF8DF084FFADF022E4CC81
:10017200F875F008EF2FFFEE33FEEC33FCEE9DEC4A
:10018200984005FCEE9DFE0FD5F0E9E4CEFD22ED90
:10019200F8F5F0EE8420D21CFEADF075F008EF2FDA
:1001A200FFED33FD4007985006D5F0F222C398FDCB
:0501B2000FD5F0EA2268
:1001B700C2D5EC30E709B2D5E4C39DFDE49CFCEE63
:1001C70030E715B2D5E4C39FFFE49EFE120162C378
:1001D700E49DFDE49CFC800312016230D507C3E473
:0601E7009FFFE49EFE22D2
:00000001FF
