:03000000020CD619
:0C0CD600787FE4F6D8FD758159020D1DF1
:100E690002480000024D00C8024FFF85024BFF38BF
:030E7900014A012A
:1010C600758901758CB1758AE075881175A8837567
:1010D600B801758921759850E4F58E758DFD758B6F
:0910E600FD75A893D28E020EB430
:101000001210C630070D1211FE120E1CC20712116B
:10101000FE800BAD4EAC4DAF50AE4F1209C7A205CE
:10102000720050DF1211FEAF4CAE4B120B2DC200FE
:07103000C2051211FE80CC85
:100FC500AE48AF497C007D0512093CED4C7003121B
:100FD50011BAAE48AF497C007D0A12093CED6401A7
:100FE5004C700312113AAE48AF497C007D191209C5
:0B0FF5003CED64024C70031211E2227C
:03000B000210EFF1
:1010EF00C0E0C0F0C083C082C0D075D008758CB18D
:1010FF00758AE00549E54970020548120FC5D0D041
:09110F00D082D083D0F0D0E03290
:100E7C00410000A5041100000000C108011500C1CB
:040E8C000901100048
:0C11F200C2AC8F993099FDC299D2AC229A
:060F84008B3E8A3F89400C
:100F8A00854144854245854346900000E0FF1211A1
:100F9A00F2AB3EAA3FA9401208F6FF1211F2AB4487
:100FAA00AA45A9461208F6FF1211F2AB44AA45A9AE
:0B0FBA004690000112090FFF0211F227
:10111800AF12AD14AC13EF24FE601224FE60092454
:1011280003700E8C4F8D50228C4B8D4C228C4D8D24
:011138004E68
:011139002293
:03002300020F4287
:0E0F4200C0E0C083C082C0D075D01830982B9C
:100F5000859947C208900000E0B54702D2093009E0
:100F600018AF10051074112FF8A647AF10EF6404E6
:0B0F70007007C209F510121118C2989A
:090F7B00D0D0D082D083D0E03246
:060E90000116000117002D
:10106A00EF24FE600A047019E5161392B68012AFD7
:10107A0016EF64026005EF64047004C2B68002D2FF
:10108A00B60516D3E5169408748094804003E4F5F7
:01109A00163F
:01109B002232
:1011BA00AF150515D3EF940A748094804003D208C2
:0411CA0022C2082213
:10113A00120C41300107754A04C2018003754A0145
:10114A0075410075420075434F7B007A00794A0267
:02115A000F8400
:1011E2003008057517018003751702AF1702106AE0
:101037005072657365740041637475616C00526525
:10104700736574005375636365737366756C6C7948
:10105700004D494E54656D703A004D415854656DC9
:03106700703A00DC
:100E9600C106C101C107C100C105C104C102C10328
:0D0EA60001514E08521609080808090600FF
:0F0DCC0054F0FA43020CAF02120F037F027E00B5
:0A0DDB00EF1FAC0670011E4C6036DD
:100DE500753D01D3E53D94007480948040E8753CE1
:100DF5000FD3E53C9400748094804016753B02D374
:100E0500E53B9400748094804004153B80F1153CCB
:060E150080DF153D80CDD9
:010E1B0022B4
:1011CE00D2A100D2A00000000000C2A100000000C9
:0411DE0000C2A02289
:070EFC00AB071211CEAF514C
:100F0300E4FEEEFD3395E0FCC3ED9408EC648094BD
:100F1300805016EF3392A1EF25E0FF0000D2A0002E
:100F230000000000C2A00E80D900000000D2A10082
:0E0F3300000000D2A000000020A1FD00C2A01E
:010F4100228D
:10117E00120EFCEB120DCC5302FBAF02120F03EB5F
:0E118E00540FC4120DCC5302FBAF02020F032C
:10109C00120EFCEB54F0FA43020D120DD25302FB6C
:1010AC00AF02120F03EB540FC454F0FA43020D12AB
:0A10BC000DD25302FBAF02020F0336
:100EB4007F3312117E7F057E00120DDB7F3212110B
:100EC4007E7F057E00120DDB7F2812117E7F057E5A
:100ED40000120DDB7F0C12117E7F057E00120DDBEC
:100EE4007F0612117E7F057E00120DDB7F01121139
:080EF4007E7F057E00020DDB8C
:050D6200E4FDFCFFFEB2
:060D67008B388A39893A3D
:100D6D00C3EE648094805003E4FEFFD3EF940FEE46
:100D7D006480948040047E007F0FC3EC6480948077
:100D8D005003E4FCFDD3ED9401EC648094804004A9
:100D9D007C007D01ED75F040A424802FFF12117EA3
:100DAD00AB38AA39A93A1208F66013053AE53A703C
:0E0DBD0002053914F91208F6FF12109C80E2AC
:010DCB002205
:05115C002430FB7D01C1
:10116100AE07A90353050153060FED600343064083
:0D117100430680AF0612117EAF0102109CF4
:10119C007F4012117EE4F9E9C39408748094805066
:0D11AC000C745229F8E6FF12109C0980EA2D
:0111B9002213
:0809C7008E228F238C248D2564
:1009CF00C3E522648094805018D204C3E49523F5C4
:1009DF0023E49522F5227B2D7D017F091211618081
:1009EF00083004051211FEC204C3E524648094800C
:1009FF005018D202C3E49525F525E49524F5247B00
:100A0F002D7D01E4FF12116180083002051211FEE5
:100A1F00C20212119CAE24AF257C007D6412099195
:100A2F008F29AE24AF257C007D641209917E007F53
:100A3F000ACFCDCFCECCCE1209918F2AAE24AF25BF
:100A4F007C007D0A1209918D2BAE22AF237C007D95
:100A5F00641209918F26AE22AF237C007D641209A8
:100A6F00917E007F0ACFCDCFCECCCE1209918F27AA
:100A7F00AE22AF237C007D0A1209918D287BFF7A6D
:100A8F00107937E4FDFC7F09FE120D677BFF7A10AA
:100A9F00793E120D62E4FB7D017F05121161E4FBCB
:100AAF007D017F0E1211617B7CE4FD7F07121161C6
:100ABF007B7C7D017F0712116112119CE5297F015B
:100ACF0012115CE52A2430FB7D017F021211617B3C
:100ADF002E7D017F03121161E52B2430FB7D017FF9
:100AEF0004121161E4FB7D017F05121161E52624DB
:100AFF0030FB7D017F0A121161E5277F0B12115C1C
:100B0F007B2E7D017F0C121161E5282430FB7D01C6
:0E0B1F007F0D121161E4FB7D017F0E0211615A
:100C4100209004D207D201209102D20020960B7489
:100C5100642550F550E4354FF54F20970C749C25D1
:100C610050F55074FF354FF54F20940B740A255001
:100C7100F550E4354FF54F20950C74F62550F5509D
:100C810074FF354FF54F2092080550E5507002056D
:100C91004F209308E55015507002154FD3E550943D
:100CA100E7E54F648094834008754F037550E7D2A0
:100CB10005C3E550954CE54B6480F8E54F64809899
:100CC1005008854B4F854C50D205E590543F643F09
:050CD1006002D20622C2
:100E1C0078227C007D007BFF7A1079457E007F066E
:100E2C001208D078287C007D007BFF7A10794B7EED
:100E3C00007F0D1208D07B007A007922E4FDFC7F44
:100E4C0005FE120D677B007A0079287D017C007FFE
:0D0E5C00027E00120D677FE87E03020DDBB1
:040B2D008E228F2362
:100B310078247C007D007BFF7A1079587E007F0944
:100B41001208D0782D7C007D007BFF7A1079617EC0
:100B5100007F091208D012119C7B007A00792412BF
:100B61000D627B007A00792D7D017C00E4FFFE128D
:100B71000D67C3E522648094805018C3E49523F582
:100B810023E49522F522D2037B2DE4FD7F0A121185
:100B91006180083003051211FEC203AE22AF237C2F
:100BA100007D64120991AB07EB75F064A4FFC3E506
:100BB100239FFFE52295F0FE7C007D0A1209918FAB
:100BC10036EB75F064A4FEC3E5239EFFE53675F0B0
:100BD1000AA4FEC3EF9EF537EB2430FBE4FD7F0B47
:100BE100121161E5362430FBE4FD7F0C1211617BAB
:100BF1002EE4FD7F0D121161E5372430FBE4FD7F0A
:100C01000E121161E4FBFD7F0F1211617B397D0131
:100C11007F0B1211617B397D017F0C1211617B2EDB
:100C21007D017F0D1211617B397D017F0E121161F2
:100C3100E4FB7D017F0F1211617FE87E03020DDB72
:0511FE007F0102117EDB
:100CE200021000E493A3F8E493A34003F68001F218
:100CF20008DFF48029E493A3F85407240CC8C33313
:100D0200C4540F4420C8834004F456800146F6DFE1
:100D1200E4800B0102040810204080900E69E47EFA
:100D2200019360BCA3FF543F30E509541FFEE493D6
:100D3200A360010ECF54C025E060A840B8E493A39D
:100D4200FAE493A3F8E493A3C8C582C8CAC583CAC8
:100D5200F0A3C8C582C8CAC583CADFE9DEE780BE80
:010EB300003E
:10080000E709F608DFFA8046E709F208DFFA803EDA
:1008100088828C83E709F0A3DFFA8032E309F608C7
:10082000DFFA8078E309F208DFFA807088828C832F
:10083000E309F0A3DFFA806489828A83E0A3F608E3
:10084000DFFA805889828A83E0A3F208DFFA804CBD
:1008500080D280FA80C680D4806980F28033801094
:1008600080A680EA809A80A880DA80E280CA8033FD
:1008700089828A83ECFAE493A3C8C582C8CCC58375
:10088000CCF0A3C8C582C8CCC583CCDFE9DEE78045
:100890000D89828A83E493A3F608DFF9ECFAA9F0C4
:1008A000EDFB2289828A83ECFAE0A3C8C582C8CC1A
:1008B000C583CCF0A3C8C582C8CCC583CCDFEADE33
:1008C000E880DB89828A83E493A3F208DFF980CC95
:1008D00088F0EF60010E4E60C388F0ED2402B4048E
:1008E0000050B9F582EB2402B4040050AF23234535
:0608F00082239008507302
:1008F600BB010689828A83E0225002E722BBFE0200
:09090600E32289828A83E4932232
:10090F00BB010CE58229F582E5833AF583E022509D
:10091F0006E92582F8E622BBFE06E92582F8E222E7
:0D092F00E58229F582E5833AF583E4932201
:10093C00BC000BBE0029EF8DF084FFADF022E4CC9F
:10094C00F875F008EF2FFFEE33FEEC33FCEE9DEC68
:10095C00984005FCEE9DFE0FD5F0E9E4CEFD22EDAE
:10096C00F8F5F0EE8420D21CFEADF075F008EF2FF8
:10097C00FFED33FD4007985006D5F0F222C398FDE9
:05098C000FD5F0EA2286
:10099100C2D5EC30E709B2D5E4C39DFDE49CFCEE81
:1009A10030E715B2D5E4C39FFFE49EFE12093CC3B4
:1009B100E49DFDE49CFC800312093C30D507C3E4AF
:0609C1009FFFE49EFE22F0
:00000001FF
