:0300000002049562
:0C049500787FE4F6D8FD75815C0204DC81
:1005F00042000400000257029A025900E902550025
:04060000320154016E
:1008FD00758901758CB1758AE075881175A8837538
:10090D00B801758921759850E4F58E758DFD758B3F
:09091D00FD75A893D28E0206E4D8
:1007B8001208FD900003E064017010120003120695
:1007C80097E4900003F0120003800BAD58AC57AFCC
:1007D8005AAE591201B7900000E0454B60D512009F
:1007E80003AF56AE55120318E4900000F0F54B1213
:0407F800000380BFBB
:10059100900004E0FEA3E0FF7C007D05120162ED06
:1005A1004C70051200088018900004E0FEA3E0FFE3
:1005B1007C007D05120162ED64014C70031209D5C6
:1005C100900004E0FEA3E0FF7C007D0A120162EDD1
:1005D10064014C700312094D900004E0FEA3E0FF9A
:0F05E1007C007D19120162ED4C70031209EB22B0
:03000B000208A444
:1008A400C0E0C0F0C083C082C0D075D008758CB1E0
:1008B400758AE0900005E004F07006900004E004FE
:0F08C400F0120591D0D0D082D083D0F0D0E032A6
:10060400410006A5041200000000011000011600BC
:06061400011700011100B6
:0C09FE00C2AC8F993099FDC299D2AC2296
:0607FC008B3E8A3F89409C
:10080200854144854245854346900006E0FF120932
:10081200FEAB3EAA3FA94012011CFF1209FEAB44E7
:10082200AA45A94612011CFF1209FEAB44AA45A91A
:0B08320046900001120135FF0209FE94
:10097300AF13AD15AC14EF24FE601224FE600924FE
:1009830003700E8C598D5A228C558D56228C578D9F
:01099300580B
:010994002240
:0300230002072CA5
:0E072C00C0E0C083C082C0D075D01830982FB6
:10073A00859947751000900006E0B54703751701C3
:10074A00E51764017017AF11051174122FF8A64747
:0F075A00E51164047007F517F511120973C298C1
:09076900D0D0D082D083D0E03260
:06061A00015B00015C0021
:10087200EF24FE600A047019E55B1392B68012AF92
:100882005BEF64026005EF64047004C2B68002D2BA
:10089200B6055BD3E55B9408748094804003E4F56D
:0108A2005BFA
:0108A3002232
:0100080022D5
:1009D500AF160516D3EF940A748094804004751001
:0609E5000122E4F51022DE
:10094D001203F8900001E064017006755404F08004
:10095D00037554017541007542007543597B007A4A
:06096D000079540207FCB2
:1009EB00E51064017005755C018003755C02AF5CFA
:0309FB000208727D
:10083D005072657365740041637475616C00526527
:10084D00736574005375636365737366756C6C794A
:10085D0000204D494E54656D703A00204D4158545D
:05086D00656D703A000A
:1006200041000200410001004100030041000000C0
:10063000014B0001484E084C16090808080906003D
:06064000014A000149001F
:0F06470054F0FA43020CAF021207797F027E00D3
:0A065600EF1FAC0670011E4C603669
:10066000753D01D3E53D94007480948040E8753C6D
:100670000FD3E53C9400748094804016753B02D300
:10068000E53B9400748094804004153B80F1153C58
:0606900080DF153D80CD66
:010696002241
:10000E00D2A100D2A00000000000C2A1000000009A
:04001E0000C2A0225A
:07077200AB0712000EAF48B7
:10077900E4FEEEFD3395E0FCC3ED9408EC6480944F
:10078900805016EF3392A1EF25E0FF0000D2A000C0
:1007990000000000C2A00E80D900000000D2A10014
:0E07A900000000D2A000000020A1FD00C2A0B0
:0107B700221F
:1009B700120772EB1206475302FBAF02120779EBDD
:0E09C700540FC41206475302FBAF0202077919
:1008D300120772EB54F0FA43020D12064D5302FB5A
:1008E300AF02120779EB540FC454F0FA43020D120E
:0A08F300064D5302FBAF0202077925
:1006E4007F331209B77F057E001206567F32120946
:1006F400B77F057E001206567F281209B77F057E54
:10070400001206567F0C1209B77F057E00120656AA
:100714007F061209B77F057E001206567F01120973
:08072400B77F057E00020656B6
:0B0521007A00792B7B00E4FDFCFFFE5C
:06052C008B388A39893A80
:10053200C3EE648094805003E4FEFFD3EF940FEE89
:100542006480948040047E007F0FC3EC64809480BA
:100552005003E4FCFDD3ED9401EC648094804004EC
:100562007C007D01ED75F040A424802FFF1209B7B5
:10057200AB38AA39A93A12011C6013053AE53A7060
:0E05820002053914F912011CFF1208D380E2A1
:010590002248
:050995002430FB7D0190
:10099A00AE07A90353050153060FED600343064052
:0D09AA00430680AF061209B7AF010208D363
:090926007D007BFF7E001200F64B
:10092F007F401209B7E4F9E9C394087480948050AA
:0D093F000C744C29F8E6FF1208D30980EA79
:01094C002288
:0801B7008E208F218C228D2384
:1001BF0078247C007D007BFF7A08793D7E007F07E5
:1001CF001200F6782B7C007A0879447F07120926F3
:1001DF00AE22AF237C007D641201628F35AE22AF59
:1001EF00237C007D641201627E007F0ACFCDCFCECB
:1001FF00CCCE1201628F36AE22AF237C007D0A1265
:10020F0001628D37AE20AF217C007D641201628FB9
:10021F0032AE20AF217C007D641201627E007F0A26
:10022F00CFCDCFCECCCE1201628F33AE20AF217C9B
:10023F00007D0A1201628D347B007A007924E4FD7F
:10024F00FC7F09FE12052C120521E4FB7D017F05C1
:10025F0012099AE4FB7D017F0E12099A7B7CE4FD63
:10026F007F0712099A7B7C7D017F0712099A120979
:10027F002F7B007A007924E4FDFC7F09FE12052C08
:10028F001205217B2E7D017F0212099A7B2E7D01A3
:10029F007F0B12099A7B7CE4FD7F0712099A7B7C06
:1002AF007D017F0712099AE5352430FB7D01E4FFBC
:1002BF0012099AE5367F011209957B2E7D017F0287
:1002CF0012099AE5372430FB7D017F0312099AE466
:1002DF00FB7D017F0512099AE5322430FB7D017FFA
:1002EF000912099AE5337F0A1209957B2E7D017F4A
:1002FF000B12099AE5342430FB7D017F0C12099A09
:09030F00E4FB7D017F0E02099A56
:1003F80020900A9000037401F0900001F02091060B
:100408009000007401F020960B7464255AF55AE4A4
:100418003559F55920970C749C255AF55A74FF35AF
:1004280059F55920940B740A255AF55AE43559F5AB
:100438005920950C74F6255AF55A74FF3559F55913
:10044800209208055AE55A70020559209308E55A82
:10045800155A70021559D3E55A94E7E559940340A3
:1004680009755903755AE7754B01C3E55A9556E561
:10047800599555500985555985565A754B01E5903A
:0D048800543F643F60069000027401F022B2
:1006970078207C007D007BFF7A08794B7E007F06FF
:1006A7001200F678267C007D007BFF7A0879517E60
:1006B700007F0D1200F67B007A007920E4FDFC7FB5
:1006C70005FE12052C7B007A0079267D017C007FD0
:0D06D700027E0012052C7FE87E030206560D
:040318008E208F2183
:10031C0078227C007D007BFF7A08795E7E007F0A64
:10032C001200F6782C7C007A0879687F0A1209266C
:10033C007A0079221205257B007A00792C7D017CCC
:10034C0000E4FFFE12052CAE20AF217C007D641270
:10035C000162AB07EB75F064A4FFC3E5219FFFE5D9
:10036C002095F0FE7C007D0A1201628F36EB75F051
:10037C0064A4FEC3E5219EFFE53675F00AA4FEC316
:10038C00EF9EF537EB2430FBE4FD7F0A12099AE56A
:10039C00362430FBE4FD7F0B12099A7B2EE4FD7FA3
:1003AC000C12099AE5372430FBE4FD7F0D12099AF3
:1003BC00E4FBFD7F0E12099A7B397D017F0A12093D
:1003CC009A7B397D017F0B12099A7B2E7D017F0C64
:1003DC0012099A7B397D017F0D12099AE4FB7D018C
:0C03EC007F0E12099A7FE87E030206567D
:050003007F010209B7B6
:1004A1000207B8E493A3F8E493A34003F68001F2B2
:1004B10008DFF48029E493A3F85407240CC8C3335C
:1004C100C4540F4420C8834004F456800146F6DF2B
:1004D100E4800B01020408102040809005F0E47EC6
:1004E100019360BCA3FF543F30E509541FFEE49320
:1004F100A360010ECF54C025E060A840B8E493A3E7
:10050100FAE493A3F8E493A3C8C582C8CAC583CA11
:10051100F0A3C8C582C8CAC583CADFE9DEE780BEC9
:0106460000B3
:10002600E709F608DFFA8046E709F208DFFA803EBC
:1000360088828C83E709F0A3DFFA8032E309F608A9
:10004600DFFA8078E309F208DFFA807088828C8311
:10005600E309F0A3DFFA806489828A83E0A3F608C5
:10006600DFFA805889828A83E0A3F208DFFA804C9F
:1000760080D280FA80C680D4806980F28033801076
:1000860080A680EA809A80A880DA80E280CA8033DF
:1000960089828A83ECFAE493A3C8C582C8CCC58357
:1000A600CCF0A3C8C582C8CCC583CCDFE9DEE78027
:1000B6000D89828A83E493A3F608DFF9ECFAA9F0A6
:1000C600EDFB2289828A83ECFAE0A3C8C582C8CCFC
:1000D600C583CCF0A3C8C582C8CCC583CCDFEADE15
:1000E600E880DB89828A83E493A3F208DFF980CC77
:1000F60088F0EF60010E4E60C388F0ED2402B40470
:100106000050B9F582EB2402B4040050AF23234516
:06011600822390007673C5
:10011C00BB010689828A83E0225002E722BBFE02E1
:09012C00E32289828A83E4932214
:10013500BB010CE58229F582E5833AF583E022507F
:1001450006E92582F8E622BBFE06E92582F8E222C9
:0D015500E58229F582E5833AF583E49322E3
:10016200BC000BBE0029EF8DF084FFADF022E4CC81
:10017200F875F008EF2FFFEE33FEEC33FCEE9DEC4A
:10018200984005FCEE9DFE0FD5F0E9E4CEFD22ED90
:10019200F8F5F0EE8420D21CFEADF075F008EF2FDA
:1001A200FFED33FD4007985006D5F0F222C398FDCB
:0501B2000FD5F0EA2268
:00000001FF
