:03000000020543B3
:0C054300787FE4F6D8FD75816102058A1E
:1006380002590000025E000002600000025C000037
:03064800015B0152
:1009AD00758901758CB1758AE075881175A8837587
:1009BD00B801758921759850E4F58E758DFD758B8F
:0909CD00FD75A893D28E0208BC4E
:100955001209AD120A243008071206E1C208800BFD
:10096500AD5FAC5EAF61AE601201EDA206720150E3
:0E097500E2AF5DAE5C12038FC201C20680D5F8
:10084600AE59AF5A7C007D05120162ED4C70031261
:100856000A69AE59AF5A7C007D0A120162ED640145
:100866004C70031209FFAE59AF5A7C007D19120174
:0B08760062ED64024C7003120AA8221D
:03000B000209D611
:1009D600C0E0C0F0C083C082C0D075D008758CB1AD
:1009E600758AE0055AE55A70020559120846D0D0B4
:0909F600D082D083D0F0D0E032B1
:10064B00410000A5041100000000C189C10A011579
:06065B0015C10B011000A7
:0C0AB800C2AC8F993099FDC299D2AC22DB
:060805008B3E8A3F894092
:10080B00854144854245854346900000E0FF120A2E
:10081B00B8AB3EAA3FA94012011CFF120AB8AB4469
:10082B00AA45A94612011CFF120AB8AB44AA45A956
:0B083B0046900001120135FF020AB8D0
:10073000AF12AD14AC13EF54F064F07007D20A534B
:10074000070F8002C20AEF24FE602C24FE602324DF
:10075000037028D3ED94E8EC64809483501DC3EDBE
:10076000955DE55C6480F8EC648098400E8C608D4B
:0B07700061228C5C8D5D228C5E8D5F31
:01077B00225B
:030023000207C20F
:0E07C200C0E0C083C082C0D075D01830982C23
:1007D000859947751500900000E0B54702D20B30AF
:1007E0000B18AF10051074112FF8A647AF10EF6467
:0C07F000047007C20BF510120730C2980D
:0907FC00D0D0D082D083D0E032CD
:0606610001160001170064
:10092300EF24FE600A047019E5161392B68012AF25
:1009330016EF64026005EF64047004C2B68002D24D
:10094300B60516D3E5169408748094804003E4F545
:01095300168D
:010954002280
:100A6900AF150515D3EF9414748094804010D20902
:100A7900E4F55EF55FF560F561F55CF55D22C209A7
:010A8900224A
:1009FF00200A101204AE300207755B04C202800396
:100A0F00755B017541007542007543607B007A008C
:050A1F00795B020805EF
:100AA8003009057517018003751702AF170209236E
:1008F0005072657365740041637475616C00526574
:10090000736574005375636365737366756C6C7996
:10091000004D494E54656D703A004D415854656D17
:03092000703A002A
:10066700C107C102C108C101C106C105C103C10457
:1006770001504E08511609080808090600084801E4
:0906870001050515151500C1005F
:0F06910054F0FA43020CAF021207837F057E007C
:0A06A000EF1FAC0670011E4C60361F
:1006AA00753D01D3E53D94007480948040E8753C23
:1006BA0046D3E53C9400748094804016753B02D37F
:1006CA00E53B9400748094804004153B80F1153C0E
:0606DA0080DF153D80CD1C
:0106E00022F7
:10000E00D2A100D2A00000000000C2A1000000009A
:04001E0000C2A0225A
:07077C00AB0712000EAF50A5
:10078300E4FEEEFD3395E0FCC3ED9408EC64809445
:10079300805016EF3392A1EF25E0FF0000D2A000B6
:1007A30000000000C2A00E80D900000000D2A1000A
:0E07B300000000D2A000000020A1FD00C2A0A6
:0107C1002215
:100A8A0012077CEB1206915302FBAF02120783EBAB
:0E0A9A00540FC41206915302FBAF02020783F1
:1009830012077CEB54F0FA43020D1206975302FB55
:10099300AF02120783EB540FC454F0FA43020D1253
:0A09A30006975302FBAF0202078320
:1008BC007F33120A8A12069C7F32120A8A12069C15
:1008CC007F28120A8A12069C7F0C120A8A12069C36
:1008DC007F06120A8A12069C7F01120A8A7F057E05
:0408EC00000206A060
:0405CF00E4FDFCFE4D
:0605D3008B388A39893AD9
:1005D900C3EE648094805003E4FEFFD3EF940FEEE2
:1005E9006480948040047E007F0FC3EC6480948013
:1005F9005003E4FCFDD3ED9401EC64809480400445
:100609007C007D01ED75F040A424802FFF120A8A39
:10061900AB38AA39A93A12011C6013053AE53A70B8
:0E06290002053914F912011CFF12098380E248
:0106370022A0
:050A47002430FB7D01DD
:100A4C00AE07A90353050153060FED60034306409F
:0D0A5C00430680AF06120A8AAF010209832B
:100881007F40120A8AE4F9E9C39408748094805085
:100891000C745129F8E6FF1209830980EA7F481296
:1008A1000A8AE4F9E9C3940874809480500C74486E
:0A08B10029F8E6FF1209830980EA26
:0108BB00221A
:0801ED008E228F238C248D2546
:1001F500C3E522648094805018D205C3E49523F5A5
:1002050023E49522F5227B2D7D017F09120A4C807E
:1002150008300505120003C205C3E52464809480F7
:100225005018D203C3E49525F525E49524F5247BE0
:100235002D7D01E4FF120A4C8008300305120003EE
:10024500C203120881AE24AF257C037DE81201B7F5
:100255008F2AAE24AF257C037DE81201B77E007F8F
:1002650064CFCDCFCECCCE1201B78F2BAE24AF2528
:100275007C007D641201B77E007F0ACFCDCFCECC46
:10028500CE1201B78F2CAE24AF257C007D0A12015A
:10029500B78D2DAE22AF237C037DE81201B78F26E3
:1002A500AE22AF237C037DE81201B77E007F64CFC9
:1002B500CDCFCECCCE1201B78F27AE22AF237C0097
:1002C5007D641201B77E007F0ACFCDCFCECCCE1292
:1002D50001B78F28AE22AF237C007D0A1201B78DAE
:1002E500297BFF7A0879F77F011205CF7BFF7A0812
:1002F50079F0E4FDFC7F0AFE1205D37B7CE4FD7FEB
:1003050008120A4C7B7C7D017F08120A4C12088179
:10031500E52A7F01120A47E52B2430FB7D017F0288
:10032500120A4CE52C2430FB7D017F03120A4C7B1D
:100335002E7D017F04120A4CE52D2430FB7D017FC3
:1003450005120A4CE4FB7D017F06120A4CE5267F67
:100355000A120A47E5272430FB7D017F0B120A4C60
:10036500E5282430FB7D017F0C120A4C7B2E7D0194
:100375007F0D120A4CE5292430FB7D017F0E120A00
:0A0385004CE4FB7D017F0F020A4CDF
:1004AE00209004D208D202209102D20120960B7421
:1004BE00642561F561E43560F56020970C749C2528
:1004CE0061F56174FF3560F56020940B740A256147
:1004DE00F561E43560F56020950C74F62561F561E3
:1004EE0074FF3560F5602092080561E561700205C4
:1004FE0060209308E561156170021560D3E5619483
:10050E00E8E5606480948340087560037561E8D205
:10051E0006C3E561955DE55C6480F8E560648098EE
:10052E005008855C60855D61D206E590543F643F5E
:05053E006002D207225B
:1006E10078227C007D007BFF7A0879FE7E007F0600
:1006F1001200F678287C007D007BFF7A0979047E60
:10070100007F0D1200F61200037B007A0079227F30
:10071100051205CF7B007A0079287D017C007F02DC
:0F0721007E001205D37FE87E031206A0020003BC
:04038F008E228F2308
:1003930078247C007D007BFF7A0979117E007F0938
:1003A3001200F6782D7C007D007BFF7A09791A7E96
:1003B300007F091200F61208811200037B007A0005
:1003C3007924E4FDFCFFFE1205D37B007A00792D2E
:1003D3007D017C00E4FFFE1205D3C3E52264809413
:1003E300805018C3E49523F523E49522F522D20423
:1003F3007B2DE4FD7F0A120A4C80083004051200AD
:1004030003C204AE22AF237C007D641201B7AB07A5
:10041300AE22AF237C007D641201B77E007F0ACF3A
:10042300CDCFCECCCE1201B78F36AE22AF237C0018
:100433007D0A1201B78D37EB2430FBE4FD7F0B12ED
:100443000A4CE5362430FBE4FD7F0C120A4C7B2E6C
:10045300E4FD7F0D120A4CE5372430FBE4FD7F0EEB
:10046300120A4CE4FBFD7F0F120A4C7B337D017FA4
:100473000A120A4C7B307D017F0B120A4C7B307DC4
:10048300017F0C120A4C7B2E7D017F0D120A4C7BDF
:10049300307D017F0E120A4CE4FB7D017F0F120AAF
:0B04A3004C7FE87E031206A00200035D
:100A240012088120090C300005120003C2007B016A
:100A3400800A200005120003D2007B21E4FDFF128E
:020A44000A4C5A
:010A4600228D
:050003007F01020A8AE2
:10054F00020955E493A3F8E493A34003F68001F264
:10055F0008DFF48029E493A3F85407240CC8C333AD
:10056F00C4540F4420C8834004F456800146F6DF7C
:10057F00E4800B0102040810204080900638E47ECE
:10058F00019360BCA3FF543F30E509541FFEE49371
:10059F00A360010ECF54C025E060A840B8E493A338
:1005AF00FAE493A3F8E493A3C8C582C8CAC583CA63
:1005BF00F0A3C8C582C8CAC583CADFE9DEE780BE1B
:010690000069
:10002600E709F608DFFA8046E709F208DFFA803EBC
:1000360088828C83E709F0A3DFFA8032E309F608A9
:10004600DFFA8078E309F208DFFA807088828C8311
:10005600E309F0A3DFFA806489828A83E0A3F608C5
:10006600DFFA805889828A83E0A3F208DFFA804C9F
:1000760080D280FA80C680D4806980F28033801076
:1000860080A680EA809A80A880DA80E280CA8033DF
:1000960089828A83ECFAE493A3C8C582C8CCC58357
:1000A600CCF0A3C8C582C8CCC583CCDFE9DEE78027
:1000B6000D89828A83E493A3F608DFF9ECFAA9F0A6
:1000C600EDFB2289828A83ECFAE0A3C8C582C8CCFC
:1000D600C583CCF0A3C8C582C8CCC583CCDFEADE15
:1000E600E880DB89828A83E493A3F208DFF980CC77
:1000F60088F0EF60010E4E60C388F0ED2402B40470
:100106000050B9F582EB2402B4040050AF23234516
:06011600822390007673C5
:10011C00BB010689828A83E0225002E722BBFE02E1
:09012C00E32289828A83E4932214
:10013500BB010CE58229F582E5833AF583E022507F
:1001450006E92582F8E622BBFE06E92582F8E222C9
:0D015500E58229F582E5833AF583E49322E3
:10016200BC000BBE0029EF8DF084FFADF022E4CC81
:10017200F875F008EF2FFFEE33FEEC33FCEE9DEC4A
:10018200984005FCEE9DFE0FD5F0E9E4CEFD22ED90
:10019200F8F5F0EE8420D21CFEADF075F008EF2FDA
:1001A200FFED33FD4007985006D5F0F222C398FDCB
:0501B2000FD5F0EA2268
:1001B700C2D5EC30E709B2D5E4C39DFDE49CFCEE63
:1001C70030E715B2D5E4C39FFFE49EFE120162C378
:1001D700E49DFDE49CFC800312016230D507C3E473
:0601E7009FFFE49EFE22D2
:00000001FF
