:03000000020C49A6
:0C0C4900787FE4F6D8FD75815C020C9009
:100E2300420004000002570000025900000255006E
:040E33000001540165
:1010D100758901758CB1758AE075881175A883755C
:1010E100B801758921759850E4F58E758DFD758B64
:0910F100FD75A893D28E021009CE
:100D4A001210D1755901755A3875570175580975B8
:100D5A005500755664900003E06401700E1211E1AB
:100D6A00120EC8E4900003F01211E1900003E07043
:100D7A000BAD58AC57AF5AAE59120991E54B640105
:100D8A0070047F0180027F00900000E0640170041B
:100D9A007E0180027E00EE4F60BB1211E1AF56AEBB
:100DAA0055120AC0E4900000F0F54B1211E180A53B
:100CD500900004E0FEA3E0FF7C007D0512093CEDD9
:100CE5004C70051211E68018900004E0FEA3E0FFA9
:100CF5007C007D0512093CED64014C7003121183E3
:100D0500900004E0FEA3E0FF7C007D0A12093CEDA3
:100D150064014C7003121199900004E0FEA3E0FFFA
:100D25007C007D1912093CED4C70031211C2900034
:100D350004E0FEA3E0FF7C007D3212093CED4C701F
:050D4500031211E7227A
:03000B000210A23E
:1010A200C0E0C0F0C083C082C0D075D008758CB1DA
:1010B200758AE0900005E004F07006900004E004F8
:0F10C200F0120CD5D0D0D082D083D0F0D0E03255
:100E37000117A5031300000001120001160001109D
:040E47000001110095
:0C11D500C2AC8F993099FDC299D2AC22B7
:060F5C008B3E8A3F894034
:100F6200854144854245854346AF171211D5AB3EB4
:100F7200AA3FA9401208F6FF1211D5AB44AA45A90F
:100F8200461208F6FF1211D5AB44AA45A9469000B5
:080F92000112090FFF0211D545
:10116800AF13AD15AC14EF24FC60092403700B8C8D
:0A117800598D5A22855755855856A7
:01118200224A
:03002300020F9A2F
:070F9A00C0E0C0D075D018C3
:030FA10030982B5A
:100FA400859947751200E547B51703751001E510DB
:100FB40064017017AF11051174132FF8A647E511DA
:0B0FC40064037007F510F511121168AE
:050FCF00D0D0D0E0329B
:060E4B00015B00015C00E8
:10107000EF24FE600A047019E55B1392B68012AF8C
:101080005BEF64026005EF64047004C2B68002D2B4
:10109000B6055BD3E55B9408748094804003E4F567
:0110A0005BF4
:0110A100222C
:0111E60022E6
:10118300AF160516D3EF940A748094804004751249
:061193000122E4F5122226
:101199007541007542007543597B007A00795412F4
:0511A9000F5C020BA326
:1011C200E51264017005755C018003755C02AF5C19
:0311D20002107098
:0111E70022E5
:100FD4005072657365740041637475616C00526589
:100FE400736574005375636365737366756C6C79AC
:100FF40000204D494E54656D703A00204D415854BF
:05100400656D703A006B
:100E51004100020041000100410003004100000087
:100E6100014B0001484E084C160908080809060004
:060E7100014A00014900E6
:0F0E780054F0FA43020CAF02120F1D7F057E00EB
:0A0E8700EF1FAC0670011E4C603630
:100E9100753D01D3E53D94007480948040E8753C34
:100EA1000FD3E53C9400748094804016753B02D3C7
:100EB100E53B9400748094804004153B80F1153C1F
:060EC10080DF153D80CD2D
:010EC7002208
:1011AE00D2A100D2A00000000000C2A100000000E9
:0411BE0000C2A022A9
:080F150054F0FA43020DAF0293
:100F1D00E4FEEEFD3395E0FCC3ED9408EC648094A3
:100F2D00805016EF3392A1EF25E0FF0000D2A00014
:100F3D0000000000C2A00E80D900000000D2A10068
:0E0F4D00000000D2A000000020A1FD00C2A004
:010F5B002273
:02112100AB071A
:101123001211AEAF48120F1DEB120E785302FBAF34
:1011330002120F1DEB540FC4120E785302FBAF02C1
:03114300020F1D7B
:02103D00AB07FF
:10103F001211AEAF48120F1DEB120F157F027E007B
:10104F00120E875302FBAF02120F1DEB540FC41287
:10105F000F157F027E00120E875302FBAF02020FA5
:01106F001D63
:101009007F33121121120E837F32121121120E83A6
:101019007F28121121120E837F0C121121120E83C7
:101029007F06121121120E837F011211217F057E85
:0410390000020E871C
:040DBA007B00FFFEBD
:060DBE008B388A39893AE6
:100DC400C3EE648094805003E4FEFFD3EF940FEEEF
:100DD4006480948040047E007F0FC3EC6480948020
:100DE4005003E4FCFDD3ED9401EC64809480400452
:100DF4007C007D01ED75F040A424802FFF121121A9
:100E0400AB38AA39A93A1208F66013053AE53A70E4
:0E0E140002053914F91208F6FF12103D80E2B3
:010E220022AD
:051146002430FB7D01D7
:10114B00AE07A90353050153060FED600343064099
:0D115B00430680AF06121121AF0102103DC6
:0910FA007D007BFF7E001208D08E
:101103007F40121121E4F9E9C3940874809480505C
:0D1113000C744C29F8E6FF12103D0980EA2B
:0111200022AC
:080991008E208F218C228D23A2
:1009990078247C007D007BFF7A0F79D47E007F0765
:1009A9001208D0782B7C007A0F79DB7F071210FAB6
:1009B9007B007A007924E4FDFC7F09FE120DBE7AE2
:1009C90000792BE4FDFC120DBAE4FB7D017F0512D1
:1009D900114BE4FB7D017F0E12114B7B2E7D017FB4
:1009E9000212114B7B2E7D017F0B12114B7B7CE494
:1009F900FD7F0712114B7B7C7D017F0712114BAEE6
:100A090022AF237C007D6412093CAB07EB75F064CF
:100A1900A4FFC3E5239FFFE52295F0FE7C007D0A34
:100A290012093C8F35EB75F064A4FEC3E5239EFFE4
:100A3900E53575F00AA4FEC3EF9EF536AE20AF2169
:100A49007C007D6412093C8F32EF75F064A4FFC30A
:100A5900E5219FFFE52095F0FE7C007D0A12093C07
:100A69008F33E53275F064A4FEC3E5219EFFE533BB
:100A790075F00AA4FEC3EF9EF534EB2430FB7D012B
:100A8900E4FF12114BE5357F01121146E53624309A
:100A9900FB7D017F0312114BE5322430FB7D017F81
:100AA9000912114BE5337F0A121146E5342430FB54
:070AB9007D017F0C02114BCF
:100BA30020900A9000037401F0900001F020910658
:100BB3009000007401F020960B7464255AF55AE4F2
:100BC3003559F55920970C749C255AF55A74FF35FD
:100BD30059F55920940B740A255AF55AE43559F5F9
:100BE3005920950C74F6255AF55A74FF3559F55961
:100BF300209208055AE55A70020559209308E55AD0
:100C0300155A70021559D3E55A94E7E559940340F0
:100C130009755903755AE7754B01C3E55A9556E5AE
:100C2300599555500985555985565A754B01AF90BD
:100C3300EFF460047F0180027F00EF447F60069041
:060C430000027401F02222
:100EC80078207C007D007BFF7A0F79E27E007F0628
:100ED8001208D078267C007D007BFF7A0F79E87EA7
:100EE800007F0D1208D07B007A007920E4FDFC7F9A
:100EF80005FE120DBE7B007A0079267D017C007FFD
:0D0F0800027E00120DBE7FE87E03020E8700
:040AC0008E208F21D4
:100AC40078227C007D007BFF7A0F79F57E007F0A17
:100AD4001208D0782C7C007A0F79FF7F0A1210FA62
:100AE4007B007A007922E4FDFCFFFE120DBE7A0041
:100AF400792C7D017C00E4120DBAAE20AF217C007C
:100B04007D6412093CAB07EB75F064A4FFC3E521D7
:100B14009FFFE52095F0FE7C007D0A12093C8F368C
:100B2400EB75F064A4FEC3E5219EFFE53675F00A7B
:100B3400A4FEC3EF9EF537EB2430FBE4FD7F0A12DD
:100B4400114BE5362430FBE4FD7F0B12114B7B2E59
:100B5400E4FD7F0C12114BE5372430FBE4FD7F0DDF
:100B640012114BE4FBFD7F0E12114B7B397D017F8B
:100B74000A12114B7B397D017F0B12114B7B2E7DA9
:100B8400017F0C12114B7B397D017F0D12114BE457
:0F0B9400FB7D017F0E12114B7FE87E03020E875F
:0511E1007F0102112155
:100C5500020D4AE493A3F8E493A34003F68001F25E
:100C650008DFF48029E493A3F85407240CC8C333A0
:100C7500C4540F4420C8834004F456800146F6DF6F
:100C8500E4800B0102040810204080900E23E47ECE
:100C9500019360BCA3FF543F30E509541FFEE49364
:100CA500A360010ECF54C025E060A840B8E493A32B
:100CB500FAE493A3F8E493A3C8C582C8CAC583CA56
:100CC500F0A3C8C582C8CAC583CADFE9DEE780BE0E
:010E7700007A
:10080000E709F608DFFA8046E709F208DFFA803EDA
:1008100088828C83E709F0A3DFFA8032E309F608C7
:10082000DFFA8078E309F208DFFA807088828C832F
:10083000E309F0A3DFFA806489828A83E0A3F608E3
:10084000DFFA805889828A83E0A3F208DFFA804CBD
:1008500080D280FA80C680D4806980F28033801094
:1008600080A680EA809A80A880DA80E280CA8033FD
:1008700089828A83ECFAE493A3C8C582C8CCC58375
:10088000CCF0A3C8C582C8CCC583CCDFE9DEE78045
:100890000D89828A83E493A3F608DFF9ECFAA9F0C4
:1008A000EDFB2289828A83ECFAE0A3C8C582C8CC1A
:1008B000C583CCF0A3C8C582C8CCC583CCDFEADE33
:1008C000E880DB89828A83E493A3F208DFF980CC95
:1008D00088F0EF60010E4E60C388F0ED2402B4048E
:1008E0000050B9F582EB2402B4040050AF23234535
:0608F00082239008507302
:1008F600BB010689828A83E0225002E722BBFE0200
:09090600E32289828A83E4932232
:10090F00BB010CE58229F582E5833AF583E022509D
:10091F0006E92582F8E622BBFE06E92582F8E222E7
:0D092F00E58229F582E5833AF583E4932201
:10093C00BC000BBE0029EF8DF084FFADF022E4CC9F
:10094C00F875F008EF2FFFEE33FEEC33FCEE9DEC68
:10095C00984005FCEE9DFE0FD5F0E9E4CEFD22EDAE
:10096C00F8F5F0EE8420D21CFEADF075F008EF2FF8
:10097C00FFED33FD4007985006D5F0F222C398FDE9
:05098C000FD5F0EA2286
:00000001FF
